:020000040800F2
:1000000000500020D9400008A13E0008A33E00088F
:10001000A53E0008A73E0008A93E00080000000019
:10002000000000000000000000000000AB3E0008DF
:10003000AD3E000800000000AF3E0008B13E0008E1
:100040002141000821410008214100082141000808
:1000500021410008214100082141000821410008F8
:1000600021410008214100082141000821410008E8
:1000700021410008214100082141000821410008D8
:10008000BD3E0008CD3E0008214100082141000886
:1000900021410008214100082141000821410008B8
:1000A00021410008214100082141000821410008A8
:1000B000214100082141000821410008DD3E0008DF
:1000C000ED3E0008214100082141000821410008BF
:1000D0002141000821410008214100082141000878
:1000E00021410008214100082141000800000000D2
:1000F0000000000000000000000000000000000000
:0C01000000000000000000005FF808F1A3
:10010C0010B5054C237833B9044B13B10448AFF345
:10011C0000800123237010BDDC01002000000000D2
:10012C005445000808B5034B1BB103490348AFF312
:10013C00008008BD00000000E001002054450008CC
:10014C0010F8012B11F8013B012A28BF9A42F7D075
:10015C00D01A7047034613F8012B002AFBD1181A4A
:10016C000138704710B504460E4B18784FF47A736B
:10017C00B3FBF0F30C4A1068B0FBF3F000F0C8F8D6
:10018C0068B90F2C01D901200AE0002221464FF05A
:10019C00FF3000F061F8034B5C60002000E00120B0
:1001AC0010BD00BF000000200800002008B5074A61
:1001BC00136843F010031360032000F02FF80020A5
:1001CC00FFF7D0FF03F016FE002008BD0020024010
:1001DC00034A1168034B1B780B441360704700BF34
:1001EC000402002000000020014B1868704700BF7B
:1001FC000402002038B50446FFF7F6FF0546B4F1BB
:10020C00FF3F02D0044B1B781C44FFF7EDFF401B53
:10021C00A042FAD338BD00BF0000002010B5044640
:10022C00C31E042B0FD80A4AD36823F4E0631B04C3
:10023C001B0C240204F4E064234343F0BF6343F437
:10024C000033D36010BDA221024803F049FDEAE758
:10025C0000ED00E09845000870B505460C461646C2
:10026C000F2A25D80F2C28D81B4BDB68C3F302238D
:10027C00C3F10702042A28BF0422191D062921D91B
:10028C00033B4FF0FF3101FA02F224EA02049C40D6
:10029C0001FA03F326EA03063443002D14DB240190
:1002AC00E4B205F1604505F5614585F8004370BD84
:1002BC00BA210A4803F014FDD4E7BB21074803F028
:1002CC000FFDD1E70023DCE705F00F052401E4B2B4
:1002DC00034B5C55EBE700BF00ED00E098450008D0
:1002EC0014ED00E010B5041E08DB04F01F026409D5
:1002FC0001239340044A42F8243010BDCE21034818
:10030C0003F0EEFCF1E700BF00E100E098450008C7
:10031C000138B0F1807F0AD2064B5860064AF021B2
:10032C0082F823100020986007221A607047012081
:10033C00704700BF10E000E000ED00E010B504468F
:10034C00042800D038B9042C0BD0094A136823F0C8
:10035C000403136010BD40F2D911064803F0C0FC31
:10036C00F1E7034A136843F004031360F2E700BF9C
:10037C0010E000E098450008704708B5FFF7FCFF57
:10038C0008BD0000002800F09D8010B504460368ED
:10039C004D4A934215D01432934212D014329342E8
:1003AC000FD0143293420CD01432934209D0143231
:1003BC00934206D01432934203D0AA21434803F04F
:1003CC008FFC636823B1102B02D0B3F5804F56D14C
:1003DC00A368402B01D0002B56D1E368802B01D0B1
:1003EC00002B56D123692BB1B3F5807F02D0B3F526
:1003FC00007F53D163692BB1B3F5806F02D0B3F595
:10040C00006F50D1A3690BB1202B51D1E36943B1DB
:10041C00B3F5805F05D0B3F5005F02D0B3F5405F54
:10042C004BD122682A4B13442A49A1FB03131B0905
:10043C009B002364284BE363022384F8213011686A
:10044C0021F47F5121F030016368A0680343E06818
:10045C0003432069034360690343A0690343E069D4
:10046C0003430B4313600020A062E06220636063CF
:10047C00A063012384F8213084F8200010BDAB2147
:10048C00124803F02DFCA3E7AC21104803F028FC24
:10049C00A3E7AD210D4803F023FCA3E7AE210B48E5
:1004AC0003F01EFCA6E7AF21084803F019FCA9E7EE
:1004BC00B021064803F014FCA8E7B121034803F06F
:1004CC000FFCAEE70120704708000240D44500083D
:1004DC00F8FFFDBFCDCCCCCC0000024008B590F8A5
:1004EC002130022B03D004238363012008BD026852
:1004FC00136823F00E0313600268136823F00103E2
:10050C0013600368194A934214D0143293421FD0DB
:10051C00143293421ED0143293421ED014329342A2
:10052C001ED01432934202D04FF0807203E04FF48D
:10053C00801200E001220E4B5A60012380F821301A
:10054C00002380F82030436B6BB198470020CDE737
:10055C001022F0E74FF48072EDE74FF48052EAE797
:10056C004FF48032E7E70020C0E700BF08000240EC
:10057C000000024038B5C36B1A6804682568016C2A
:10058C0004238B40134235D015F0040F32D023686E
:10059C0013F0200F03D1236823F0040323600368B6
:1005AC00434A934214D01432934218D014329342DB
:1005BC0017D01432934217D01432934217D01432FE
:1005CC00934202D04FF0806203E04FF4800200E0CF
:1005DC000422384B5A60C36A03B1984738BD402295
:1005EC00F7E74FF48062F4E74FF48042F1E74FF401
:1005FC008022EEE702238B4013423CD015F0020F11
:10060C0039D0236813F0200F06D1236823F00A0396
:10061C002360012380F821300368254A934214D0CB
:10062C00143293421CD0143293421BD01432934296
:10063C001BD0143293421BD01432934202D04FF091
:10064C00007203E04FF4001200E00222194B5A60D2
:10065C00002380F82030836A002BBFD09847BDE779
:10066C002022F3E74FF40072F0E74FF40052EDE76D
:10067C004FF40032EAE7082303FA01F11142ADD03E
:10068C0015F0080FAAD0236823F00E032360026C28
:10069C00C16B012303FA02F24A60836380F82130B4
:1006AC00002380F82030036B002B97D0984795E7F8
:1006BC0008000240000002402DE9F04383B0804660
:1006CC000F46B64B984213D003F5806398420FD077
:1006DC0003F5806398420BD003F58063984207D0F2
:1006EC0003F58063984203D0CD21AD4803F0F8FAAE
:1006FC003B689AB212B11B0C1B041BB1CE21A8484B
:10070C0003F0EEFA7B68012B1ED9112B1CD0022BA7
:10071C001AD0122B18D0A34A934215D002F580128E
:10072C00934211D002F5801293420DD0A2F5F8122B
:10073C00934209D002F58012934205D002F5801243
:10074C00934201D0032B03D14FF000094E46D8E061
:10075C00CF21934803F0C4FAF6E7002B5ED0012BAF
:10076C0005D1FB68013B022B65D8D7F80C90FF2C08
:10077C0000F296804046FF2C00F29580B200036890
:10078C000F21914023EA010309FA02F2134303609B
:10079C007B6813F0805F00F0B380834B9A6942F062
:1007AC0001029A619B6903F001030193019BB2085A
:1007BC00911C7E4B53F8210006F0030399000F2384
:1007CC008B4020EA0300754B984572D003F580638B
:1007DC00984500F0CD8003F58063984500F0CA8001
:1007EC0003F58063984562D0042363E0704A93421A
:1007FC0014D00BD96F4A934210D002F58032934239
:10080C000CD0A2F580129342B1D107E0A2F5801270
:10081C00934203D002F580329342A8D1BB68022BDD
:10082C002DD8BB68002B38D0012B2ED0C8F8145013
:10083C004FF008099BE7E521594803F051FA94E77A
:10084C00EC21574803F04CFA8EE0FB68013B022B7D
:10085C0003D8FB6803F1080989E7F321504803F03A
:10086C003FFAF6E7FB68013B022B03D8FB6803F168
:10087C000C097CE7FA214A4803F032FAF6E740F219
:10088C000711474803F02CFACBE7C8F810504FF08B
:10089C0008096CE74FF0000969E74FF0040966E7B7
:1008AC0008F1040067E7A6F10802920067E703234A
:1008BC0000E000238B40034302323C4941F82230D4
:1008CC007B6813F4803F57D03B4A13682343136073
:1008DC007B6813F4003F55D0374A53682343536069
:1008EC007B6813F4801F53D0334A9368234393607F
:1008FC007B6813F4001F61D02F4AD3681C43D4606B
:10090C0001360F2E60D80125B5403C682C40A5421D
:10091C00F6D1224B984513D003F5806398450FD040
:10092C0003F5806398450BD003F58063984507D099
:10093C0003F58063984503D0DD21194803F0D0F905
:10094C007B68122B8ED03FF651AF022B3FF47DAF5C
:10095C007FF603AF032B9DD0112B7FF408AFFB6800
:10096C00013B022B3FF66CAFFB6803F10409FEE67A
:10097C0001239FE702239DE70F4A136823EA040330
:10098C001360A5E70C4A536823EA04035360A7E7F6
:10099C00094A936823EA04039360A9E7000801401D
:1009AC000C4600080000111000100240000001402D
:1009BC00000021100000311000040140044AD368EB
:1009CC0023EA0404D4609BE703B0BDE8F08300BFC6
:1009DC000004014038B505460C4621B1AB681C42F9
:1009EC0007D1002038BD40F2C311034803F078F959
:1009FC00F4E70120F6E700BF0C46000870B5064688
:100A0C0015460C4629B1012D09D875B92404346159
:100A1C0070BD40F2E311064803F062F9F3E74FF4BE
:100A2C00F271034803F05CF9EFE73461F0E700BFC3
:100A3C000C46000890F83E30DBB2402B13D0036913
:100A4C00B3F5804F1ED0036D002B2DD0036D012B01
:100A5C0033D1436CC3F3C813026803F0060343F0AD
:100A6C00F103136129E0036D2BB9436C026803F0A9
:100A7C00FE03136121E0436C026843F00103DBB217
:100A8C0013611AE090F83D30DBB2212B06D0436C99
:100A9C00026843F00103DBB213610EE0436C0268A1
:100AAC0003F0FE03136108E0436CC3F3C813026840
:100ABC0003F0060343F0F003136100207047436C0E
:100ACC000268DBB213610020704710B48DB090F84F
:100ADC003E30DAB2C16A046B90F83D30DBB2222BA7
:100AEC000BD000230B9303685A690B929B690B93F1
:100AFC000B9B00200DB010BC7047036D0BB9402A46
:100B0C0017D0036D1BB90369B3F5404F19D0438D52
:100B1C009BB2002B25D1039303685A6903929A69FF
:100B2C000392039A1A6842F400721A600023036558
:100B3C00DFE7019303685A6901929B690193019B5A
:100B4C00D7E70023029303685A6902929A690292CA
:100B5C00029A1A6842F480721A60036D01330365BD
:100B6C00C7E7438D9BB2012B1AD0438D9BB2022B4E
:100B7C006BD00268136843F48063136003685A688F
:100B8C0012F4006F03D05A6842F480525A6000236A
:100B9C000A9303685A690A929B690A930A9BC5E7F0
:100BAC0011F5803F16D004293DD008293BD0122CDA
:100BBC0039D0C36A022B30D00268136823F48063E7
:100BCC0013600023069303685A6906929B69069387
:100BDC00069BABE70268136823F480631360036819
:100BEC005A6812F4006F0CD01A6822F480621A60F2
:100BFC000023049303685A6904929B690493049B31
:100C0C0094E7002205925A6905929A690592059A11
:100C1C001A6842F400721A6088E70268136843F499
:100C2C0080631360CDE70268136823F4806313605C
:100C3C000023079303685A6907929A690792079AE7
:100C4C001A6842F400721A6070E7C36A022B1BD058
:100C5C000268136843F4006313600023089303686D
:100C6C005A6908929A690892089A1A6822F4806262
:100C7C001A6003685A6812F4006F3FF457AF5A6851
:100C8C0042F480525A6051E70268136843F480635F
:100C9C0013600023099303685A6909929B690993AD
:100CAC00099BE6E7438D9BB24BB1436A5A1C4262E7
:100CBC0002681B781361438D013B9BB24385002076
:100CCC007047438D9BB24BB103681A69436A591C38
:100CDC0041621A70438D013B9BB2438500207047E3
:100CEC0003685A6912F4806F0DD06FF480625A61F8
:100CFC000423036400230363202280F83D2080F842
:100D0C003C300120704700207047F8B506460C4671
:100D1C0017461D461EE02DB1FFF766FA069BC01A5A
:100D2C00A84217D900233363202286F83D2086F889
:100D3C003E3086F83C3003201AE033685B6924EAC5
:100D4C0003039BB2B3FA83F35B099F420FD1B5F156
:100D5C00FF3FE0D1C4F30743012BEED033689B690E
:100D6C0024EA03039BB2B3FA83F35B09EDE700209B
:100D7C00F8BDF8B504460D4616461F4632E01A6813
:100D8C0042F400721A6023686FF480625A61042383
:100D9C00236400232363202284F83D2084F83C3014
:100DAC0001202DE026B1FFF71FFAC01BB04219D964
:100DBC0000232363202284F83D2084F83C30032058
:100DCC001EE023685B6925EA03039BB2003318BF5E
:100DDC000123A3B123685A6912F4806FCFD1B6F105
:100DEC00FF3FDFD1C5F30743012BEAD023689B6992
:100DFC0025EA03039BB2003318BF0123E9E7002067
:100E0C00F8BD0000F0B583B004460D4616461F46EB
:100E1C00C36A042B0DD0012B0BD013F5803F08D0E7
:100E2C00036B122B0AD10268136843F480731360AE
:100E3C0004E02268136843F4807313600097334610
:100E4C0000224FF001112046FFF75FFF58BB2369CA
:100E5C00B3F5804F10D1236805F0FE051D613B46AC
:100E6C00324615492046FFF784FF0346E0B1236C58
:100E7C00042B1ED1012317E0EB11226803F00603AB
:100E8C0043F0F00313613B4632460C492046FFF712
:100E9C0070FF20B1236C042B09D1012304E02368DB
:100EAC00EDB21D61DBE70323184603B0F0BD03234D
:100EBC00FAE70323F8E700BF020001000800010075
:100ECC0070B504460D46164623685B6913F0800F17
:100EDC0019D12046FFF704FFB8B9B5F1FF3FF3D0A5
:100EEC0025B1FFF781F9801BA842EDD9236C43F0A3
:100EFC002003236400232363202284F83D2084F8FC
:100F0C003C30032000E0002070BD0120FCE7000015
:100F1C002DE9F04184B004460E46174698460B9DC9
:100F2C000268136843F48073136000950A9B0022D7
:100F3C004FF00111FFF7E9FE002847D1236806F0B6
:100F4C00FE061E612B460A9A26492046FFF711FF22
:100F5C0020B1236C042B3ED1012338E000230393F2
:100F6C0023685A6903929B690393039B2A460A9947
:100F7C002046FFF7A5FF034648B1236C042B2CD168
:100F8C002268136843F40073136001231FE0B8F167
:100F9C00010F13D023683A0A1A612A460A9920468F
:100FAC00FFF78EFF034668B1236C042B17D1226820
:100FBC00136843F400731360012308E02268FFB246
:100FCC00176104E02268FFB2176100E003231846A2
:100FDC0004B0BDE8F0810323F9E70323F7E703230B
:100FEC00F5E700BF020001002DE9F04184B0044692
:100FFC000E46174698460B9D0268136843F48063AF
:10100C0013600268136843F48073136000950A9BA5
:10101C0000224FF00111FFF778FE002874D1F6B2D0
:10102C00236806F0FE021A612B460A9A3F492046B5
:10103C00FFF79FFE20B1236C042B6AD1012364E0DF
:10104C000023039323685A6903929B690393039BC0
:10105C002A460A992046FFF733FF48B1236C042B2C
:10106C0059D12268136843F40073136001234CE0D8
:10107C00B8F1010F12D12368FFB21F612A460A99F9
:10108C002046FFF71DFF00B3236C042B47D12268C9
:10109C00136843F400731360012336E023683A0AA3
:1010AC001A612A460A992046FFF70AFF48B1236CB9
:1010BC00042B32D12268136843F4007313600123AC
:1010CC0023E02368FFB21F61D8E72268136843F45A
:1010DC008073136000950A9B00224FF0011120468B
:1010EC00FFF713FEE8B9236846F001061E612B4694
:1010FC000A9A0E492046FFF73CFE034628B1236CA2
:10110C00042B10D1012300E00323184604B0BDE8E2
:10111C00F0810323F9E70323F7E70323F5E7032320
:10112C00F3E70323F1E70323EFE700BF020001001D
:10113C0070B504460D46164623685B6913F0040F20
:10114C0019D12046FFF7CCFDB8B9B5F1FF3FF3D06C
:10115C0025B1FFF749F8801BA842EDD9236C43F069
:10116C002003236400232363202284F83D2084F889
:10117C003C30032000E0002070BD0120FCE770B57E
:10118C0005460C4616462B685A6912F0400F22D1C0
:10119C005A6912F0100F11D124B1FFF725F8801BFA
:1011AC00A042F0D92B6C43F020032B64202385F84C
:1011BC003D30002385F83C30032070BD6FF01002E9
:1011CC005A6100232B642B63202285F83D2085F87F
:1011DC003C300120F1E70020EFE70000002800F090
:1011EC00078138B504460368834A934208D002F558
:1011FC008062934204D040F27D11804802F070FD71
:10120C006368013B7E4A934275D8A36813B1B3F56A
:10121C00804F76D1E36823F47F7323F00303002B14
:10122C0075D12369B3F5804F02D0B3F5404F74D11B
:10123C006369012B77D8A36933F0FE0379D1E36995
:10124C000BB1402B7BD1236A0BB1802B7DD194F851
:10125C003D30002B7FD0242384F83D302268136866
:10126C0023F00103136001F02DFE6268654B9A4276
:10127C0077D8654B98428CBF00230123002B40F09C
:10128C00B980624BA3FB00239B0C226853606168FE
:10129C005C4A91426BD80133226813626168594BE6
:1012AC0099426ED8431E4900B3FBF1F30133C3F3EB
:1012BC000B03042B38BF04232268D361E369216A32
:1012CC0022680B4313602369E16822680B43936027
:1012DC006369A16922680B43D3602268136843F0E9
:1012EC000103136000202064202384F83D30206328
:1012FC0084F83E0038BD4FF4BF71404802F0F0FC5A
:10130C0083E740F27F113D4802F0EAFC82E74FF49C
:10131C00C0713A4802F0E4FC83E740F2811137488F
:10132C0002F0DEFC84E74FF4C171344802F0D8FCC3
:10133C0081E740F28311314802F0D2FC7FE74FF491
:10134C00C2712E4802F0CCFC7DE740F285112B488F
:10135C0002F0C6FC7BE784F83C30204602F026FB0A
:10136C0079E72B4B98428CBF0023012386E74FF47F
:10137C00967202FB03F3274AA2FB03239B0901335A
:10138C008AE7A368BBB9421E01EB4105B2FBF5F23B
:10139C000132C2F30B02B2FA82F2520932BBC3B968
:1013AC00013801EB4103B0FBF3F30133C3F30B033F
:1013BC0043F4004380E7421E01EB810505EB8505F4
:1013CC00B2FBF5F20132C2F30B02B2FA82F252090D
:1013DC00E4E7013801EB810303EB8303B0FBF3F388
:1013EC000133C3F30B0343F4404365E7012363E785
:1013FC000120704701207DE700540040484600085A
:10140C007F1A0600A08601007F841E0083DE1B432A
:10141C00FF083D00D34D62102DE9F04184B0044625
:10142C000E4690461F46FEF7DFFE94F83D30DBB2C9
:10143C00202B04D00226304604B0BDE8F0810546CE
:10144C0000901923012254492046FFF75EFC002826
:10145C0040F0998094F83C30012B00F096800123E9
:10146C0084F83C3023681A6812F0010F03D11A6813
:10147C0042F001021A602268136823F400631360BF
:10148C00212384F83D30102384F83E30002323645C
:10149C00C4F824806785A3F58033E362638D2385CC
:1014AC002B460A9A31462046FFF7ACFC064660B143
:1014BC00236C042B04D1002384F83C300126BAE7BA
:1014CC00002384F83C300326B5E7002303932368FC
:1014DC005A6903929B690393039B10E0236C042BC2
:1014EC0055D12268136843F4007313600126A2E7F8
:1014FC002A460A992046FFF71BFE00282BD1238D84
:10150C00002B32D02A460A992046FFF7D9FC002836
:10151C00E4D1636A5A1C626222681B781361638D82
:10152C00013B9BB26385238D013B9BB223852268D3
:10153C00516911F0040FDBD0002BD9D0636A591C10
:10154C0061621B781361638D013B9BB26385238DB4
:10155C00013B2385CCE7236C042B1AD1226813683A
:10156C0043F400731360012665E72268136843F4A3
:10157C0000731360202384F83D30002384F83E3040
:10158C0084F83C3057E7022655E7022653E703263A
:10159C0051E703264FE700BF020010002DE9F04190
:1015AC0082B004460F4690461E46FEF71DFE0546C9
:1015BC00012E01D0102E09D194F83D30DBB2202B36
:1015CC000AD00223184602B0BDE8F08140F695110E
:1015DC00544802F085FBEFE700951923012252498C
:1015EC002046FFF792FB002840F0938094F83C30A3
:1015FC00012B00F09080012384F83C3023681A689A
:10160C0012F0010F03D11A6842F001021A6022682D
:10161C00136823F400631360212384F83D304023C6
:10162C0084F83E3000232364089B6362BDF82430A9
:10163C0063853E4BE362638D238501950A9B009382
:10164C003346424639462046FFF762FCB0B1236C64
:10165C00042B04D1002384F83C300123B2E700238F
:10166C0084F83C300323ADE7236C042B55D122685E
:10167C00136843F4007313600123A3E7238D002B3D
:10168C0028D02A460A992046FFF71AFC0028EBD1ED
:10169C00636A5A1C626222681B781361238D013BBA
:1016AC009BB22385628D013A92B2628522685169A0
:1016BC0011F0040FE2D0002BE0D0636A591C616278
:1016CC001B781361238D013B2385638D013B9BB2FA
:1016DC006385D3E72A460A992046FFF729FD03467E
:1016EC0048B1236C042B1AD12268136843F400739D
:1016FC001360012366E721680A6842F400720A60ED
:10170C00202284F83D20002284F83E2084F83C20DE
:10171C0058E7022356E7022354E7032352E7032337
:10172C0050E700BF48460008020010000000FFFF11
:10173C002DE9F04186B004460F4690461E46FEF752
:10174C0053FD0546012E01D0102E09D194F83D30E1
:10175C00DBB2202B0AD00226304606B0BDE8F08161
:10176C0040F61B21944802F0BBFAEFE700951923D1
:10177C00012292492046FFF7C8FA002840F059810F
:10178C0094F83C30012B00F05681012384F83C3056
:10179C0023681A6812F0010F03D11A6842F0010293
:1017AC001A602268136823F400631360222384F800
:1017BC003D30402384F83E30002323640C9B63624D
:1017CC00BDF8343063857E4BE362638D23850195D0
:1017DC000E9B00933346424639462046FFF704FCE5
:1017EC00064660B1236C042B04D1002384F83C30F2
:1017FC000126B1E7002384F83C300326ACE7238DA7
:10180C005BB9029323685A6902929A690292029A0E
:10181C001A6842F400721A607FE0012B0FD0022B81
:10182C0021D02268136843F480631360002305936E
:10183C0023685A6905929B690593059B6DE02268A4
:10184C00136823F48063136072B600230393236838
:10185C005A6903929A690392039A1A6842F40072C5
:10186C001A6062B659E02268136843F4006313608F
:10187C0072B60023049323685A6904929A690492FD
:10188C00049A1A6822F480621A6062B645E02A460D
:10189C000E992046FFF773FC68B923681A69636ACE
:1018AC00591C61621A70238D013B2385638D013BAA
:1018BC009BB2638531E0236C202B01D001264BE7D2
:1018CC00032649E700950E9B00223E492046FFF770
:1018DC001CFA002840F0B18072B62268136843F4F9
:1018EC000073136023681A69636A591C61621A7069
:1018FC00238D013B2385638D013B9BB2638562B6CF
:10190C0023681A69636A591C61621A70238D013B42
:10191C002385638D013B9BB26385238D002B7FD088
:10192C00032B51D8012BB2D0022BCBD000950E9BA0
:10193C00002224492046FFF7E8F900287FD12268CD
:10194C00136823F48063136072B623681A69636AA0
:10195C00591C61621A70238D013B2385638D013BF9
:10196C009BB2638500950E9B002216492046FFF71B
:10197C00CCF9002865D12268136843F40073136016
:10198C0023681A69636A591C61621A70238D013BC2
:10199C002385638D013B9BB2638562B623681A690C
:1019AC00636A591C61621A70238D013B2385638D18
:1019BC00013B9BB26385B0E748460008020010006B
:1019CC000000FFFF040001002A460E992046FFF795
:1019DC00D6FBF0B923681A69636A591C61621A70E4
:1019EC00238D013B2385638D013B9BB2638523686B
:1019FC005A6912F0040F90D01A69636A591C61621B
:101A0C001A70238D013B2385638D013B9BB263854B
:101A1C0083E7236C202B01D001269DE603269BE651
:101A2C00202384F83D30002384F83E3084F83C3089
:101A3C0092E6022690E602268EE603268CE6032624
:101A4C008AE6032688E600BF2DE9F04385B00446FC
:101A5C00884691461D46FEF7C7FB94F83D30DBB235
:101A6C00202B04D00223184605B0BDE8F0830646AF
:101A7C0000901923012256492046FFF746F9002809
:101A8C0040F09B8094F83C30012B00F098800123AF
:101A9C0084F83C3023681A6812F0010F03D11A68DD
:101AAC0042F001021A602268136823F40063136089
:101ABC00242384F83D3000232364A3F58033E362B0
:101ACC00012735E0A02384F83D3022685369C3F325
:101ADC0040035269C2F3802294F83D10C9B253B945
:101AEC004AB9A02907D0002DECD0FEF77DFB801B56
:101AFC00A842EAD9E6E7202384F83D3023685A69E6
:101B0C0012F0020F35D11A6842F400721A60236881
:101B1C006FF480625A610096192301222C492046E9
:101B2C00FFF7F3F8002850D17B1C4F453DD21F46E0
:101B3C002268136843F48073136000962B460022CE
:101B4C004FF001112046FFF7E0F8002839D1236847
:101B5C0008F0FE021A61FEF747FB0646226853693D
:101B6C00C3F340035269C2F3802294F83D10C9B20A
:101B7C00B5E71A6842F400721A60002303932368D5
:101B8C005A6903929B690393039B009619230122C4
:101B9C000F492046FFF7B9F80346A0B9202284F874
:101BAC003D20002284F83C205DE7202384F83D3062
:101BBC00002384F83C30012355E7022353E702232A
:101BCC0051E703234FE703234DE703234BE700BF04
:101BDC000200100070477047704708B590F83D3010
:101BEC00DAB2438D9BB273B1436A591C41620168EE
:101BFC001B780B61438D013B9BB24385438D9BB29C
:101C0C000BB9292A01D0002008BD0268536823F4BF
:101C1C008063536021230363282380F83D30FFF752
:101C2C00DBFFF0E7704790F83D30DAB2438D9BB2A2
:101C3C00F3B110B503681969436A5C1C44621970EE
:101C4C00438D013B9BB24385438D9BB20BB92A2A32
:101C5C0001D0002010BD0268536823F480635360E8
:101C6C0022230363282380F83D30FFF7DBFFF0E7E6
:101C7C0000207047704708B503689A6912F0040F8A
:101C8C0009D000219B6913F0800F06D0028BFFF75F
:101C9C00F1FF002008BD0121F4E78289F7E77047C6
:101CAC0008B590F83D30DBB2C26A042A01D0082A8C
:101CBC0001D1282B07D0212B1FD003686FF4806231
:101CCC005A61002008BD1A4BC3620268536823F4A2
:101CDC00E063536003686FF480625A6102681368B2
:101CEC0023F48063136000230363202280F83D20DB
:101CFC0080F83E30FFF7D3FFE3E70D4BC36221239F
:101D0C000363202380F83D30002380F83E300268C6
:101D1C00536823F4E063536003686FF480625A6184
:101D2C000268136823F480631360FFF755FFC8E75C
:101D3C000000FFFF704710B590F83D30DBB290F813
:101D4C003E20D2B2C46A018D09B9212B05D0212BBA
:101D5C003CD0402A38D0002010BD042C04D0082CD4
:101D6C0002D014F5803F19D10268536823F4E06364
:101D7C0053600268136843F4007313600023036319
:101D8C00202380F83D3090F83E30DBB2402B15D04C
:101D9C00002380F83E30FFF71DFFDCE70268536834
:101DAC0023F4E063536011230363002380F83E3077
:101DBC00202380F83D30FFF70DFFCCE7002380F89F
:101DCC003E30FFF7B7FFC6E7222BC4D1438D9BB241
:101DDC007BB190F83E30DBB2402B10D0436A5A1CDA
:101DEC00426202681B781361438D013B9BB24385B1
:101DFC00B1E70268536823F480635360ABE7036D6B
:101E0C009BB9C36C012B08D0836CC3F30723026806
:101E1C001361036D013303659DE7836C0268DBB2CC
:101E2C001361036D0233036595E7036D012B17D026
:101E3C00036D022B8FD190F83D30DBB2222B17D0E3
:101E4C0090F83D30DBB2212B85D1436A5A1C42629B
:101E5C0002681B781361438D013B9BB243857AE783
:101E6C00836C0268DBB21361036D0133036572E7A7
:101E7C000268136843F4807313606CE708B5C26A98
:101E8C0090F83D30DBB2212B01D0002008BD438DF2
:101E9C009BB203BB042A04D0082A02D012F5803F5F
:101EAC0024D10268536823F4E0635360026813681A
:101EBC0043F40073136000230363202380F83D3048
:101ECC0090F83E30DBB2402B20D0002380F83E301F
:101EDC00FFF780FED9E7436A5A1C426202681B78FE
:101EEC001361438D013B9BB24385CEE70268536877
:101EFC0023F4E063536011230363002380F83E3026
:101F0C00202380F83D30FFF765FEBEE7002380F804
:101F1C003E30FFF70FFFB8E7704708B590F83D303B
:101F2C00DBB2222B01D0002008BD438D9BB2032BCA
:101F3C0029D8023B012B31D9C36A022B47D0026846
:101F4C00136823F4806313600268536823F4E0631E
:101F5C00536003681A69436A591C41621A70438DB5
:101F6C00013B9BB24385202380F83D300023036363
:101F7C0090F83E30DBB2402B2FD0002380F83E305F
:101F8C00FFF729FECFE703681A69436A591C4162BF
:101F9C001A70438D013B9BB24385C4E7C36A022B85
:101FAC000FD00268136823F480631360026813680F
:101FBC0043F4006313600268536823F48063536036
:101FCC00B1E70268136843F480631360F3E70268B7
:101FDC00136843F480631360B6E7002380F83E3047
:101FEC00FFF79AFF9FE708B5C26A438D9BB2032B9C
:101FFC000FD0438D9BB2022B22D003681A69436A1F
:10200C00591C41621A70438D013B9BB243850020E1
:10201C0008BD042A04D0082A02D012F5803F04D14E
:10202C000268136823F48063136003681A69436AB7
:10203C00591C41621A70438D013B9BB24385E6E704
:10204C00042A17D0082A15D012F5803F12D0022A84
:10205C000AD00268136823F4806313600268536823
:10206C0023F4407353600FE00268136843F48063F9
:10207C001360F3E70268536823F4407353600268FB
:10208C00136843F40073136003681A69436A591C9C
:10209C0041621A70438D013B9BB2438503681A69F8
:1020AC00436A591C41621A70438D013B9BB24385B4
:1020BC00202380F83D300023036390F83E30DBB2E0
:1020CC00402B05D0002380F83E30FFF784FD9EE7BF
:1020DC00002380F83E30FFF71FFF98E770477047EA
:1020EC0010B5044690F83D30293B012B36D990F8B9
:1020FC003D30DBB2602B07D003685B6813F4006FD4
:10210C0002D1202380F83D300023236384F83E3035
:10211C002268136823F40063136023685A6812F46E
:10212C00006F3ED05A6822F400625A60636B93F8D9
:10213C002120012A18D03A4A5A63606BFEF7CEF977
:10214C0000283FD02268136823F00103136020237A
:10215C0084F83D30606B436B984733E00023036396
:10216C00282380F83D30D3E7A36B2D4A5A63A06B2C
:10217C00FEF7B4F930B323685A6912F0400F04D05B
:10218C001A69636A591C61621A702268136823F019
:10219C0001031360202384F83D30A06B436B9847F8
:1021AC0010E094F83D20D2B2602A11D05A6912F096
:1021BC00400F04D01A69636A591C61621A70204678
:1021CC00FFF78CFF94F83D30DBB2282B17D010BDF5
:1021DC00202284F83D20002222645A6912F0400F1C
:1021EC0004D01A69636A591C61621A7022681368F8
:1021FC0023F0010313602046FFF771FFE2E7236C25
:10220C0013F0040FE3D0074BE36200232363202277
:10221C0084F83D2084F83E302046FFF740FDD6E799
:10222C00792500080000FFFF10B582B090F83D3012
:10223C00DBB201684A6822F4E0624A600022019233
:10224C00026851690191116841F001011160019A14
:10225C0001680A6822F480620A6001684A6812F414
:10226C00006F14D090F83D20D2B2222A0AD090F8F8
:10227C003D20D2B22A2A05D0426B1268526892B223
:10228C00428504E0826B1268526892B24285428D9C
:10229C0092B2F2B14A6912F0040F08D00969426A8D
:1022AC00541C44621170428D013A92B2428502680C
:1022BC00516911F0400F08D01169426A541C4462F4
:1022CC001170428D013A92B24285026C42F00402C6
:1022DC000264026CA2B9282B15D02A2B13D0292BFF
:1022EC0011D0026B222A01D0222B17D100230363B9
:1022FC00202280F83D2080F83E30FFF793FC0DE063
:10230C00FFF7EEFE0AE0074BC362002303632022B3
:10231C0080F83D2080F83E30FFF7C1FC002002B071
:10232C0010BD00BF0000FFFFF8B5054603689F69AC
:10233C005C695E6890F83E30DBB2102B25D0402BE8
:10234C0023D04C4B234013B116F4007F6ED14A4B73
:10235C00234013B116F4007F6BD1484B3B40002B4C
:10236C006FD0474B234033B116F4806F03D0454BED
:10237C002340002B61D0434B234053B316F4007F12
:10238C0027D02846FEF78EFC23E014F0011F02D064
:10239C0016F4007F1ED13C4B234013B116F4007F82
:1023AC001CD1344B234013B116F4007F1AD1334B9C
:1023BC003B401BB3324B23402BB116F4806F02D041
:1023CC00304B234093B12F4B234013B116F4007FB5
:1023DC0010D1F8BD2846FEF72DFBE8E72846FEF79E
:1023EC006EFBE4E72846FEF770FBE0E72846FFF7B4
:1023FC00A2FCEEE72846FFF741FDEAE7234B23401A
:10240C002BB116F4806F02D01E4B234053B11D4BE1
:10241C002340002BDDD016F4007FDAD02846FFF7DE
:10242C00E2FDD6E72846FFF778FDD2E7FFF723FC5D
:10243C00CFE72846FFF7F8FECBE72846FFF7CDFBA2
:10244C00C7E7124B23402BB116F4806F02D00D4B13
:10245C00234053B10B4B2340002BBAD016F4007F12
:10246C00B7D02846FEF72DFCB3E72846FFF7DBFB79
:10247C00AFE700BF020001001000010004001000D3
:10248C008000010004000100080001004000010070
:10249C0070B5044603685D695E68334A15420ED018
:1024AC0016F4807F0BD0026C42F0010202646FF4D0
:1024BC0080725A610268136843F40043136015F488
:1024CC00813F0AD016F4807F07D0236C43F00203BF
:1024DC00236423686FF400725A6115F4823F1AD09A
:1024EC0016F4807F17D094F83E30DBB2628D91B237
:1024FC0094F83D20D2B2206B202B1DD0236C43F0DE
:10250C000403236494F83E30DBB2102B22D02368F2
:10251C006FF480625A6115F4843F0AD016F4807F00
:10252C0007D0236C43F00803236423686FF4006224
:10253C005A61236CA3B970BD0029DFD1212A05D0C3
:10254C00292A03D0282AD9D12128D7D12046FFF710
:10255C00A7FBE0E72268136843F400731360D6E727
:10256C002046FFF7BDFDE6E70001010008B5406A13
:10257C000268136823F48063136000234385426B65
:10258C005363826B536390F83D30DBB2602B0DD0FC
:10259C00202380F83D30002380F83E300268136819
:1025AC0023F001031360FFF799FD08BD202380F889
:1025BC003D30002380F83E3003640268136823F03A
:1025CC0001031360FFF78BFDEFE7000000286FD0CD
:1025DC00F0B587B004460268364B9A4203D09F216F
:1025EC00354801F07DFB94F82934C3B1032384F8FA
:1025FC002934206800F07FFF254655F8107B6E4685
:10260C000FCD0FC62B683360231D0ECB384600F060
:10261C0063FF0021206800F078FF002316E084F8A7
:10262C002834204601F03CFDE0E704EB4312012185
:10263C0082F8291082F828309386002182F82B101A
:10264C009163D1639A1C5201A15001330E2BECD92A
:10265C00002312E004EB4312002182F8291282F8C5
:10266C002832938682F82B12C2F83812C2F83C1228
:10267C0003F112025201A15001330E2BEAD9254667
:10268C0055F8107B6E460FCD0FC62B683360231D9B
:10269C000ECB384600F03BFF002584F82450012374
:1026AC0084F82934206800F048FF284607B0F0BDB4
:1026BC0001207047005C00408046000882B0084B47
:1026CC001B68084AA2FB03235B0A00FB03F0019082
:1026DC0000BF019B5A1E0192002BF9D102B070472A
:1026EC0008000020D34D621070B582B0044678B358
:1026FC00236813B113F00F0F30D0236813F0010FC0
:10270C0046D063682BB1B3F5803F02D0B3F5A02F50
:10271C002AD1AC4B5B6803F00C03042B2FD0A94BD4
:10272C005B6803F00C03082B24D06368B3F5803F7F
:10273C005BD0002B6FD103F1804303F504331A688F
:10274C0022F480321A601A6822F480221A6051E056
:10275C004FF4B8719C4801F0C3FAC9E740F271110B
:10276C00994801F0BDFAC8E740F27711964801F09C
:10277C00B7FACEE7934B5B6813F4803FD5D0914BFF
:10278C001B6813F4003F03D06368002B00F02D820C
:10279C00236813F0020F00F08A802369012B63D8A1
:1027AC0063691F2B66D8874B5B6813F00C0F6CD0DA
:1027BC00844B5B6803F00C03082B61D02369002B5E
:1027CC0000F09A80814B01221A60FDF70DFD054641
:1027DC007C4B1B6813F0020F40F08580FDF704FD65
:1027EC00401B0228F4D9032002E2764A136843F412
:1027FC0080331360636843B3FDF7F6FC0546714BF9
:10280C001B6813F4003FC3D1FDF7EEFC401B64289A
:10281C00F5D90320ECE1B3F5A02F09D0694B1A6868
:10282C0022F480321A601A6822F480221A60E1E7DE
:10283C0003F18043A3F53C331A6842F480221A60FA
:10284C001A6842F480321A60D4E7FDF7CDFC0546D5
:10285C005C4B1B6813F4003F9AD0FDF7C5FC401B82
:10286C006428F5D90320C3E140F2AB11564801F0BE
:10287C0037FA95E74FF4D671534801F031FA92E7E5
:10288C00504B5B6813F4803F98D14E4B1B6813F090
:10289C00020F04D02369012B01D00120A8E1494A81
:1028AC00136823F0F803616943EAC10313602368DA
:1028BC0013F0080F3BD0A369012B2FD8A369002B71
:1028CC0066D0434B01221A60FDF78EFC05463D4B4A
:1028DC005B6A13F0020F27D1FDF786FC401B022820
:1028EC00F5D9032084E1374A136823F0F8036169B2
:1028FC0043EAC1031360DAE7344B00221A60FDF798
:10290C0073FC05462F4B1B6813F0020FCFD0FDF75D
:10291C006BFC401B0228F5D9032069E14FF4F671DA
:10292C00294801F0DDF9C9E70120FFF7C7FE23684C
:10293C0013F0040F00F0A580E368012B01D9052BDF
:10294C0038D1204BDB6913F0805F39D11D4BDA692C
:10295C0042F08052DA61DB6903F080530193019BF2
:10296C0001251C4B1B6813F4807F35D0E368012BC9
:10297C0046D0002B5CD103F1804303F504331A6A73
:10298C0022F001021A621A6A22F004021A623CE076
:10299C000F4B00221A60FDF727FC0546094B5B6ABA
:1029AC0013F0020FC3D0FDF71FFC401B0228F5D912
:1029BC0003201DE140F21B21034801F091F9C0E70F
:1029CC000025CEE700100240B84600080000424245
:1029DC008004424200700040874A136843F48073BD
:1029EC001360FDF701FC0646834B1B6813F4807FD4
:1029FC00BCD1FDF7F9FB801B6428F5D90320F7E067
:102A0C007E4A136A43F001031362E36833B3FDF7A4
:102A1C00EBFB0646794B1B6A13F0020F2FD1FDF727
:102A2C00E3FB801B41F288339842F3D90320DFE0AB
:102A3C00052B09D0714B1A6A22F001021A621A6A2C
:102A4C0022F004021A62E0E76C4B1A6A42F00402AC
:102A5C001A621A6A42F001021A62D6E7FDF7C4FB49
:102A6C000646664B1B6A13F0020F08D0FDF7BCFB41
:102A7C00801B41F288339842F3D90320B8E0002D33
:102A8C0053D1E369022B56D8E369002B00F0AF80D9
:102A9C005A4A526802F00C02082A00F0AB80022B52
:102AAC0040F08F80236A13B1B3F5803F49D1636A3C
:102ABC004BB3B3F5802F26D0B3F5002F23D0B3F54D
:102ACC00402F20D0B3F5801F1DD0B3F5A01F1AD016
:102ADC00B3F5C01F17D0B3F5E01F14D0B3F5001F2A
:102AEC0011D0B3F5101F0ED0B3F5201F0BD0B3F5DA
:102AFC00301F08D0B3F5401F05D0B3F5501F02D0DE
:102B0C00B3F5601F23D13E4B00221A60FDF76CFB1E
:102B1C0005463A4B1B6813F0007F1ED0FDF764FB93
:102B2C00401B0228F5D9032062E0344AD36923F014
:102B3C008053D361A5E740F2B921324801F0D0F8B7
:102B4C00A2E740F2C2212F4801F0CAF8AFE740F2E9
:102B5C00C3212C4801F0C4F8D5E7236AB3F5803FB4
:102B6C001AD026494B6823F47413226A606A024314
:102B7C0013434B60224B01221A60FDF735FB0446D0
:102B8C001E4B1B6813F0007F19D1FDF72DFB001BAA
:102B9C000228F5D903202BE0A36813B1B3F5003F4D
:102BAC0007D1164A536823F40033A1680B435360D2
:102BBC00D7E740F2D921134801F092F8F1E7002051
:102BCC0016E00F4B00221A60FDF70EFB04460B4B70
:102BDC001B6813F0007F06D0FDF706FB001B0228D4
:102BEC00F5D9032004E0002002E0012000E00020E1
:102BFC0002B070BD0120FBE70070004000100240E5
:102C0C0060004242B846000810B487B0164C94E8F5
:102C1C000F000DF1180C0CE90F00238AADF80430ED
:102C2C00124B5B6803F00C02082A1AD1C3F38342DF
:102C3C00624412F8102C13F4803F05D10C4800FBB1
:102C4C0002F007B010BC7047084B5B68C3F34043FD
:102C5C00634413F8143C074800FB02F0B0FBF3F09C
:102C6C00EFE70448EDE700BF6C4500080010024098
:102C7C0000093D0000127A0070B50D460446C0B143
:102C8C00236813F00F0F1AD0022D1ED8854B1B682A
:102C9C0003F00703AB421ED2824A136823F00703EA
:102CAC002B431360136803F00703AB4213D00120CE
:102CBC0070BD40F22E317C4801F012F8E0E740F292
:102CCC002F31794801F00CF8DEE74FF44C7176485F
:102CDC0001F006F8DAE7236813F0020F18D0A368A6
:102CEC007BB1802B0DD0902B0BD0A02B09D0B02B0F
:102CFC0007D0C02B05D0D02B03D0E02B01D0F02B6C
:102D0C0034D16A4A536823F0F003A1680B43536033
:102D1C00236813F0010F61D06368022B2CD8636811
:102D2C00012B2FD0022B34D0604A126812F0020F04
:102D3C0000F0B6805D494A6822F0030213434B60F1
:102D4C00FDF752FA06466368012B29D0022B36D0C8
:102D5C00564B5B6813F00C0F40D0FDF745FA801B07
:102D6C0041F288339842F3D90320A1E740F249316C
:102D7C004D4800F0B5FFC4E74FF454714A4800F0D9
:102D8C00AFFFCCE7494A126812F4003FD2D10120C0
:102D9C008EE7464A126812F0007FCBD1012087E7FC
:102DAC00424B5B6803F00C03042B17D0FDF71CFAA5
:102DBC00801B41F288339842F2D9032078E73B4BD1
:102DCC005B6803F00C03082B08D0FDF70DFA801B91
:102DDC0041F288339842F2D9032069E7314B1B68E2
:102DEC0003F00703AB420CD92E4A136823F00703F8
:102DFC002B431360136803F00703AB4201D001208F
:102E0C0056E7236813F0040F14D0E3685BB1B3F5F5
:102E1C00806F08D0B3F5A06F05D0B3F5C06F02D0AA
:102E2C00B3F5E06F30D1214A536823F4E063E168D5
:102E3C000B435360236813F0080F15D023695BB163
:102E4C00B3F5806F08D0B3F5A06F05D0B3F5C06FA4
:102E5C0002D0B3F5E06F1DD1144A536823F46053CC
:102E6C00216943EAC1035360FFF7CEFE0F4B5B6849
:102E7C00C3F303130E4AD35CD8400E4B18600020EA
:102E8C00FDF770F9002013E74FF46971064800F064
:102E9C0027FFC8E740F2AB31034800F021FFDBE726
:102EAC00012005E700200240B8460008001002404F
:102EBC008045000808000020014B1868704700BFCF
:102ECC000800002008B5FFF7F7FF044B5B68C3F35D
:102EDC000223034AD35CD84008BD00BF0010024057
:102EEC009045000808B5FFF7E7FF044B5B68C3F398
:102EFC00C223034AD35CD84008BD00BF0010024077
:102F0C009045000870B582B00446036813F0130FA7
:102F1C006DD0236813F0010F3FD0636843B1B3F554
:102F2C00807F05D0B3F5007F02D0B3F5407F63D12D
:102F3C00504BDB6913F0805F63D14E4BDA6942F082
:102F4C008052DA61DB6903F080530193019B012508
:102F5C00494B1B6813F4807F55D0464B1B6A13F406
:102F6C00407311D0626802F440729A420CD0414A0C
:102F7C00136A23F44070414901260E6000260E604E
:102F8C00106213F0010F52D13A4A136A23F44073C2
:102F9C0061680B431362002D5AD1236813F0020FA2
:102FAC0011D0A36843B1B3F5804F05D0B3F5004FF2
:102FBC0002D0B3F5404F50D12E4A536823F440430E
:102FCC00A1680B435360236813F0100F50D0E368D3
:102FDC00B3F5800F01D0002B44D1264A536823F45B
:102FEC008003E1680B435360002002B070BD7C216C
:102FFC00234800F075FE8CE78221214800F070FE1A
:10300C0096E70025A4E71C4A136843F48073136009
:10301C00FDF7EAF80646184B1B6813F4807F9CD129
:10302C00FDF7E2F8801B6428F5D90320DDE7FDF7F6
:10303C00DBF806460F4B1B6A13F0020FA4D1FDF709
:10304C00D3F8801B41F288339842F3D90320CCE7A4
:10305C00D36923F08053D3619FE7C921084800F05E
:10306C003FFEA9E740F22511054800F039FEB4E710
:10307C000020BAE7001002400070004040044242B9
:10308C00F04600082DE9F843044642687E4B9A420C
:10309C0000F29180E3681BB1B3F5005F40F09180C2
:1030AC00236933B1B3F5806F03D0B3F5C06F40F033
:1030BC008E8063694FF6F372134200D123B940F648
:1030CC00AA11724800F00CFE2268136923F44053D5
:1030DC00E1680B431361A3682269134362691343CC
:1030EC002168CA6822F4B05222F00C021343CB6060
:1030FC002268536923F44073A1690B43536122681E
:10310C00634B9A4269D0FFF7DDFE00EB800000EBC9
:10311C0080006568AD00B0FBF5F55E4FA7FB05358B
:10312C006D092E01FFF7CEFE00EB800000EB800056
:10313C006568AD00B0FBF5F9FFF7C4FE00EB80004D
:10314C0000EB80006568AD00B0FBF5F5A7FB05351D
:10315C006D094FF0640808FB15952D013235A7FB5E
:10316C0005356D0905F0F0053544FFF7ABFE00EBB6
:10317C00800000EB80006668B600B0FBF6F6FFF747
:10318C00A1FE00EB800000EB800063689B00B0FBAD
:10319C00F3F0A7FB0030400908FB10684FEA081851
:1031AC0008F13208A7FB0837C7F3431723682F44ED
:1031BC009F60BDE8F88340F6A711344800F090FDFD
:1031CC0068E740F6A811314800F08AFD68E740F640
:1031DC00A9112E4800F084FD6BE7FFF783FE00EB8E
:1031EC00800000EB80006568AD00B0FBF5F5294F61
:1031FC00A7FB05356D092E01FFF774FE00EB80006F
:10320C0000EB80006568AD00B0FBF5F9FFF76AFED6
:10321C0000EB800000EB80006568AD00B0FBF5F5BD
:10322C00A7FB05356D094FF0640808FB15952D01BA
:10323C003235A7FB05356D0905F0F0053544FFF770
:10324C0051FE00EB800000EB80006668B600B0FB1E
:10325C00F6F6FFF747FE00EB800000EB800063689A
:10326C009B00B0FBF3F0A7FB0030400908FB106893
:10327C004FEA081808F13208A7FB0837C7F34317C1
:10328C0023682F449F6094E720AA44002C47000831
:10329C00003801401F85EB512DE9F04105460F46E2
:1032AC0016469846069C2B681B6837EA03030CBF2E
:1032BC0001230023B3421DD1B4F1FF3FF3D02CB155
:1032CC00FCF792FFA0EB0800A042ECD92A68D36867
:1032DC0023F4D073D3602A68536923F0010353613C
:1032EC00202385F8393085F83A30002385F83830BA
:1032FC00032000E00020BDE8F081000000286CD025
:10330C0010B5044683690BB30368354A93420CD05D
:10331C00A2F57442934208D002F58062934204D025
:10332C0040F20F112F4800F0DBFCA369FBB1B3F5A1
:10333C00807F1CD0B3F5007F19D0B3F5407F16D039
:10334C004FF48871274800F0CBFC10E00368244A46
:10335C0093420CD0A2F57442934208D002F58062DD
:10336C00934204D04FF48A711E4800F0B9FCA36854
:10337C0013B1B3F5805F24D194F839303BB32423D7
:10338C0084F839302268D36823F40053D360204684
:10339C00FFF778FE2268136923F4904313612268C7
:1033AC00536923F02A0353612268D36843F4005312
:1033BC00D3600020E063202384F8393084F83A305D
:1033CC0010BD4FF48B71074800F08AFCD4E784F8E9
:1033DC003830204600F0EEFDD1E70120704700BFE9
:1033EC00003801402C4700082DE9F04182B01E4600
:1033FC0090F83A30DBB2202B5AD104460D46904659
:10340C00002959D0002A59D090F83830012B57D0C8
:10341C00012380F838300023C363222380F83A302C
:10342C00FCF7E2FE0746A4F82C80A4F82E801DE0E1
:10343C0000963B46002220212046FFF72DFF002856
:10344C0040D1236933B923685B68C3F3080325F8BB
:10345C00023B0BE023685B68DBB225F8013B05E01F
:10346C0023685B6803F07F032B700135E38D9BB2FF
:10347C00BBB1E38D013B9BB2E385A368B3F5805FE1
:10348C00D6D000963B46002220212046FFF704FFB1
:10349C00D0B92369002BE3D123685B682B7001350D
:1034AC00E4E7202384F83A30002084F8380000E068
:1034BC00022002B0BDE8F0810120FAE70120F8E714
:1034CC000220F6E70320F4E70320F2E790F8393006
:1034DC0090F83A001843704784B001A880E80E00B9
:1034EC00002004B07047B0F8403043F43F43A0F8DC
:1034FC00403000207047B0F8403023F474535B0424
:10350C005B0CA0F84030002070470020704784B05E
:10351C0038B505AC84E80E000123A0F84030002437
:10352C00A0F84040A0F84440A0F85040FFF7DBFF63
:10353C002046BDE8384004B07047002070470000BA
:10354C00F0B585B006460139B0EB011F00DD002651
:10355C000B4F10223946B0B200F0E4F8094D6C461E
:10356C003946204600F05CF894E80F0085E80F001F
:10357C001946104600F0E4FA06F1100005B0F0BD53
:10358C000802002018020020F0B585B001390D01A9
:10359C00002800DB05460C4F10223946A8B200F07B
:1035AC00C1F80A4E6C463946204600F039F894E8CA
:1035BC000F0086E80F001946104600F0C1FAA5F17D
:1035CC00100005B0F0BD00BF08020020180200205A
:1035DC0000B585B000F062FA102269464FF4B8705D
:1035EC0000F0A0F8684600F096FD05B05DF804FB0D
:1035FC0008B5FCF7AFFD400808BD000038B504461F
:10360C000846064D294600F0D5FD206029460020CD
:10361C0000F0D0FD6060204638BD00BF6847000850
:10362C0038B504460846064D294600F0C3FDA06097
:10363C002946002000F0BEFDE060204638BD00BFEA
:10364C006C47000800B58DB010226946002000F0D0
:10365C0069F89DF80030A3B1694608A8FFF7E0FFB0
:10366C000B990A9800F06CFA10220DEB02014FF442
:10367C00B87000F057F804A800F04DFD0DB05DF8DF
:10368C0004FB00F083FAEFE700B583B00E4B5A69E8
:10369C0042F001025A615B6903F001030193019B43
:1036AC00002211461020FCF7D7FD1020FCF71AFE63
:1036BC00002211461120FCF7CFFD1120FCF712FE61
:1036CC0003B05DF804FB00BF0010024008B5642392
:1036DC000122A0210348FEF7B7F908B1002008BD6C
:1036EC000120FCE76C020020202A01D90020704741
:1036FC0000B585B013460246642002909BB201933C
:10370C0000911023A0210648FDF748FF18B10020B6
:10371C0005B05DF804FB0720FCF76CFD0120F7E712
:10372C006C02002000B585B06423029392B2019222
:10373C00009110230246A0210448FDF7F9FF18B1AF
:10374C00002005B05DF804FB0120FAE76C020020B4
:10375C002DE9F04188B02E4B9A6942F010029A6123
:10376C009A6902F010020092009A9A6942F02002C3
:10377C009A619A6902F020020192019A9A6942F0C8
:10378C0004029A619A6902F004020292029A9A69FE
:10379C0042F008029A619B6903F008030393039BB0
:1037AC00DFF8788000224FF400514046FDF726F9EF
:1037BC00184E002280213046FDF720F94FF40053BB
:1037CC00049301240594002506950227079704A964
:1037DC004046FCF771FF072304930595069404A952
:1037EC003046FCF769FF80230493059406950797F0
:1037FC0004A93046FCF760FF20230493059506943A
:10380C0004A90548FCF758FF08B0BDE8F08100BFDB
:10381C000010024000080140000C01400010014063
:10382C00F0B58FB007460E4615461C460023029392
:10383C0003930493059306930793089309938DF8C8
:10384C00043021460AA8FFF7D9FE10220A99B8B213
:10385C00FFF74AFF10220B99B0B2FFF745FF0A227F
:10386C0001A9681C00F098FC102201A94FF4B87053
:10387C00FFF73AFF00F02EF92046FCF76BFC0246EE
:10388C0002A9204600F08AFC0FB0F0BD10B5002450
:10389C0005E01022FF21A0B2FFF726FF0134B4F59A
:1038AC00B87FF6DD10BD000000B585B000F0F00368
:1038BC000001C0B243F00C028DF80C2043F0080359
:1038CC008DF80D3040F00C038DF80E3040F00800F0
:1038DC008DF80F0064230093042303AA4E210348A0
:1038EC00FDF79AFD05B05DF804FB00BF6C020020EB
:1038FC0000B585B000F0F0030001C0B243F00D023A
:10390C008DF80C2043F009038DF80D3040F00D03B9
:10391C008DF80E3040F009008DF80F0064230093F1
:10392C00042303AA4E210348FDF776FD05B05DF88C
:10393C0004FB00BF6C02002008B50220FFF7B4FFA7
:10394C002820FFF7B1FF0C20FFF7AEFF8020FFF718
:10395C00ABFF08BD10B5044602E00134FFF7C8FF09
:10396C0020780028F9D110BD08B50C480C4B036029
:10397C000C4B436000238360C3604FF480420261B0
:10398C0043618361C3610362FDF728FC00B908BD84
:10399C004521054800F016F9F9E700BF6C0200203C
:1039AC0000540040A0860100704700080268324BAA
:1039BC009A4200D0704710B586B004464FF440735D
:1039CC000293122303930323059302A92B48FCF7BC
:1039DC0073FE2B4A536843F0E06343F002035360D9
:1039EC00284BDA6942F40012DA61DB6903F4001344
:1039FC000193019B2448254B036010234360002353
:103A0C0083608022C260036143618361C361FCF700
:103A1C00B9FC30BB1C4B63635C621D481D4B0360DF
:103A2C000023436083608022C26003614361836131
:103A3C00C361FCF7A7FCC8B9154BA3635C620022F9
:103A4C0011461F20FCF708FC1F20FCF74BFC002242
:103A5C0011462020FCF700FC2020FCF743FC06B0AC
:103A6C0010BD6E210C4800F0ADF8D3E77E210A485A
:103A7C0000F0A8F8E0E700BF00540040000C014043
:103A8C000000014000100240280200206C0002409F
:103A9C00C0020020800002407047000808B50120D9
:103AAC00FFF702FF0A20FCF7A5FB8220FFF7FCFEC4
:103ABC000648FFF74FFFC620FFF7F6FE0448FFF756
:103ACC0049FF4FF4FA60FCF795FB08BD80470008EE
:103ADC009047000808B50120FFF7E6FE0A20FCF726
:103AEC0089FB8220FFF7E0FE0748FFF733FFC62073
:103AFC00FFF7DAFE0548FFF72DFF4FF4FA60FCF7ED
:103B0C0079FBFFF7CBFF08BD98470008A8470008D2
:103B1C0008B50120FFF7C8FE0A20FCF76BFB8020DC
:103B2C00FFF7C2FE0448FFF715FFC020FFF7BCFEED
:103B3C000248FFF70FFF08BDB0470008BC4700085C
:103B4C00F8B507460E46FFF753FD05463046FFF71E
:103B5C004FFD04460120FFF7A7FE0A20FCF74AFBA5
:103B6C00C5F18800C0B2FFF79FFE3846FFF7F2FEA2
:103B7C00C4F1C800C0B2FFF797FE3046FFF7EAFE6B
:103B8C004FF47A70FCF736FBF8BD000008B5012045
:103B9C00FFF78AFE0A20FCF72DFB8720FFF784FE37
:103BAC000648FFF7D7FEC520FFF77EFE0448FFF757
:103BBC00D1FE4FF4FA60FCF71DFB08BDD44700089A
:103BCC00D8470008FEE7000000B595B001220A9224
:103BDC004FF480330B9300210C910E920222119220
:103BEC0012934FF4801313930AA8FEF77DFD58BB74
:103BFC000F23059302230693002307934FF480624F
:103C0C0008920993012105A8FFF736F800BB102391
:103C1C0001934FF48003049301A8FFF773F9D8B90B
:103C2C00FFF74AF90E4BA3FB00308009FCF770FB41
:103C3C000420FCF783FB002211464FF0FF30FCF709
:103C4C000BFB15B05DF804FBAB210648FFF7BAFF80
:103C5C00B9210448FFF7B6FFC0210248FFF7B2FFB5
:103C6C00D34D6210E047000808B5FCF79FFAFFF748
:103C7C00ABFFFFF76DFDFFF707FDFFF775FE00F0DB
:103C8C005DF900F0EFF900F077F94FF47A70FCF77A
:103C9C00B1FAFFF751FE1048FFF75CFE4FF4FA60E3
:103CAC00FCF7A8FA0120FFF7FFFD6420FCF7A2FA4D
:103CBC0002E06420FCF79EFAFFF708FD0028F8D01C
:103CCC0001E000F00FF820210448FCF783FE0128E6
:103CDC00F7D000F05FF8F6E7F0470008000C014061
:103CEC007047000070B590B00023089309930A93B5
:103CFC000B930C930D930E930F93009301930293DC
:103D0C0003930493059306930793FFF761FC054611
:103D1C00040104F1B00613E008AB2A4631462046F4
:103D2C00FFF77EFD10341036013508A8FCF712FAA7
:103D3C000246694608A800F031FA01E0FFF7E8FEF8
:103D4C0020211148FCF746FE01281BD1A02CF5DCE4
:103D5C000E48FFF7BBFB2028F0D141F2883320221C
:103D6C000DEB02010948FFF73FFB9DF82030002BBB
:103D7C00D2D1074908A8FCF7E3F90028E0D1FFF7F6
:103D8C0085FDDDE710B070BD000C01400403002080
:103D9C000048000838B5FFF755FC0546002409E03B
:103DAC0002211248FCF716FEA8B929462046FFF757
:103DBC00EBFB044620210E48FCF70CFEA0B90121B8
:103DCC000A48FCF707FE0028EAD129462046FFF7EF
:103DDC00B7FB0446EEE704210448FCF7FBFD002882
:103DEC00E8D1FFF753FDE5E738BD00BF00080140FF
:103DFC00000C014000B583B0244B9A6942F00102DB
:103E0C009A619A6902F001020092009ADA6942F012
:103E1C008052DA61DB6903F080530193019B03202C
:103E2C00FCF7FCF9002211466FF00B00FCF714FABA
:103E3C00002211466FF00A00FCF70EFA0022114620
:103E4C006FF00900FCF708FA002211466FF004002D
:103E5C00FCF702FA002211466FF00300FCF7FCF9A4
:103E6C00002211466FF00100FCF7F6F90022114612
:103E7C004FF0FF30FCF7F0F9054A536823F0E0638C
:103E8C0043F00073536003B05DF804FB0010024074
:103E9C00000001407047FEE7FEE7FEE7FEE77047D3
:103EAC007047704708B5FCF793F9FCF766FA08BD44
:103EBC0008B50248FCF75EFB08BD00BF28020020D5
:103ECC0008B50248FCF756FB08BD00BFC002002035
:103EDC0008B50248FEF728FA08BD00BF6C020020A6
:103EEC0008B50248FEF7D4FA08BD00BF6C020020EA
:103EFC000F4B1A6842F001021A6059680D4A0A40C9
:103F0C005A601A6822F0847222F480321A601A689D
:103F1C0022F480221A605A6822F4FE025A604FF48E
:103F2C001F029A60044B4FF000629A60704700BF0A
:103F3C00001002400000FFF800ED00E008B50B484F
:103F4C000B4B03604FF4E133436000238360C36089
:103F5C0003610C2242618361C361FFF7CFF900B9A1
:103F6C0008BD43210348FFF72DFEF9E74403002069
:103F7C00003801400848000808B50B480B4B03609B
:103F8C004FF41653436000238360C36003610C221B
:103F9C0042618361C361FFF7B1F900B908BD5621D5
:103FAC000348FFF70FFEF9E7040300200048004028
:103FBC000848000810B586B00368254A934204D01F
:103FCC00244A934222D006B010BD234B9A6942F486
:103FDC0080429A619B6903F480430093009B4FF4E9
:103FEC000073029302230393032305931B4C02A932
:103FFC002046FCF761FB4FF480630293002303938C
:10400C00049302A92046FCF757FBDCE7124BDA6954
:10401C0042F48022DA61DB6903F480230193019B73
:10402C004FF48063029302230393032305930C4CF8
:10403C0002A92046FCF740FB4FF4006302930023D7
:10404C000393049302A92046FCF736FBBBE700BFA1
:10405C0000380140004800400010024000080140B8
:10406C00000C014008B50B480B4B03600823436060
:10407C00022383600323C36000238361C361036253
:10408C00FEF7A4FA00B908BD3F210448FFF79AFDDA
:10409C00F9E700BF84030020005C004018480008CA
:1040AC000268094B9A4200D0704782B003F5DA33AC
:1040BC00DA6942F40002DA61DB6903F4000301936C
:1040CC00019B02B0704700BF005C0040002103E080
:1040DC000B4B5B58435004310A480B4B42189A4225
:1040EC00F6D30A4A02E0002342F8043B084B9A42FA
:1040FC00F9D3FFF7FDFE00F013F8FFF7B5FD70479D
:10410C006049000800000020DC010020DC010020D8
:10411C00E8070020FEE70A22002100F01BB900008E
:10412C0070B500250C4E0D4CA41BA410A54209D152
:10413C0000F00AFA00250A4E0A4CA41BA410A54252
:10414C0005D170BD56F8253098470135EEE756F885
:10415C00253098470135F2E75849000858490008BE
:10416C00584900085C490008931E222B10B50C46D8
:10417C0004D900231C460B70204610BD0A2A09D115
:10418C00002807DA2D230B7001214042214400F056
:10419C00F7F8F1E70021F9E7FFF7E6BF10B5431E8A
:1041AC000A44914200D110BD11F8014B03F8014FA4
:1041BC00F7E70000134B2DE9F0411D680646AC6D86
:1041CC000F46B4B9502000F01DF9A865C0E90044B1
:1041DC00C0E90244C0E90444C0E90A44C0E90C4403
:1041EC00C0E90E44C0E91044C0E91244846104776C
:1041FC004462AA6D39463046BDE8F041012300F017
:10420C0003B800BF0C000020F0B518B9106808B94D
:10421C00F0BD204604460F4614F8015B17F8016BFD
:10422C001EB96DB915602846F2E7B542F6D1002BE0
:10423C00EFD114600370EBE72B460DE026B91C465A
:10424C0023460F4613F8015B17F8016BB542F5D105
:10425C00002DF1D0002121701360D9E72DE9F04732
:10426C008046894692461E460F463D46089815F8EC
:10427C00014B00F0C3F82044437813F0080332D10B
:10428C002D2C32D101227C78BD1C002E5DD0102E3D
:10429C0009D1302C07D12B7803F0DF03582B4FD1E9
:1042AC0010266C780235002A14BF4FF000416FF0D5
:1042BC0000410027B1FBF6FC384606FB1C1EA4F19E
:1042CC003003092B17D81C46A64223DD7B1C07D0D4
:1042DC0084451CD301D1A64519DB012700FB064000
:1042EC0015F8014BEBE72F46BFE72B2C04BFBD1C89
:1042FC007C781A46C9E7A4F14103192B01D8373C45
:10430C00E2E7A4F16103192B04D8573CDCE74FF02A
:10431C00FF37E5E77B1C08D122230846C8F800309C
:10432C00BAF1000F07D1BDE8F08702B14042BAF1F3
:10433C00000FF8D00FB105F1FF39CAF80090F2E781
:10434C003024002EAFD10826ADE7302CA3D00A269E
:10435C00A9E70000084B37B51C68084D236A002BF1
:10436C0008BF2B46009313460A4601462046FFF72A
:10437C0075FF03B030BD00BF0C00002070000020A2
:10438C00F0B58BB005460C466E461B4B03F1200C6A
:10439C00374618685968083303C763453E46F7D15A
:1043AC0018681B7938603B71931E222B4FF0000369
:1043BC0004D923701C4620460BB0F0BD661EB5FB1D
:1043CC00F2F002FB10550AAF3D4415F8285C591C5D
:1043DC0006F8015F054668B9224660542344191B50
:1043EC00101B8142E7DD1178187802F8010B03F8F5
:1043FC000119F4E70B46E2E728480008D0F8EC0076
:10440C0070470000024B0146186800F015B800BF59
:10441C000C00002082B001B901A942B14BB1137854
:10442C000B601278101C18BF012002B070471046A8
:10443C00FBE76FF00100F8E770B5CD1C25F0030524
:10444C0008350C2D38BF0C25002D064601DBA94282
:10445C0003D90C233360002070BD00F064F8214AAE
:10446C001468214691B9204C23681BB9304600F0E2
:10447C003DF820602946304600F038F8431C24D122
:10448C000C233046336000F04FF8E4E70B685B1BFD
:10449C0018D40B2B0FD90B60CC18CD50304600F034
:1044AC0043F804F10B00231D20F00700C31AD3D0EE
:1044BC005A42E250D0E74B688C4216BF63601360DF
:1044CC000C46EBE70C464968CCE7C41C24F003040B
:1044DC00A04205D0211A304600F008F80130CFD0A8
:1044EC002560DBE7F8010020FC01002038B5002333
:1044FC00054C05460846236000F018F8431C02D111
:10450C00236803B12B6038BDE407002049B1FF2AB2
:10451C008BBF8A230A700360012088BF4FF0FF30E5
:10452C00704708467047704770470000044A0549B9
:10453C001368002B08BF0B461844106018467047D0
:10454C0000020020E8070020F8B500BFF8BC08BC4A
:10455C009E467047F8B500BFF8BC08BC9E46704735
:10456C0002030405060708090A0B0C0D0E0F1010A8
:10457C000102000000000000000000000102030422
:10458C000607080900000000010203042E2E2F4428
:10459C007269766572732F53544D33324631787885
:1045AC005F48414C5F4472697665722F5372632F7A
:1045BC0073746D3332663178785F68616C5F636FEA
:1045CC00727465782E6300002E2E2F447269766506
:1045DC0072732F53544D3332463178785F48414CC7
:1045EC005F4472697665722F5372632F73746D33E7
:1045FC0032663178785F68616C5F646D612E630040
:10460C002E2E2F447269766572732F53544D3332AC
:10461C00463178785F48414C5F4472697665722FF9
:10462C005372632F73746D3332663178785F6861BF
:10463C006C5F6770696F2E63000000002E2E2F4494
:10464C007269766572732F53544D333246317878D4
:10465C005F48414C5F4472697665722F5372632FC9
:10466C0073746D3332663178785F68616C5F693270
:10467C00632E63002E2E2F447269766572732F534E
:10468C00544D3332463178785F48414C5F447269FF
:10469C007665722F5372632F73746D333266317873
:1046AC00785F68616C5F7063642E63002E2E2F44FC
:1046BC007269766572732F53544D33324631787864
:1046CC005F48414C5F4472697665722F5372632F59
:1046DC0073746D3332663178785F68616C5F7263C6
:1046EC00632E63002E2E2F447269766572732F53DE
:1046FC00544D3332463178785F48414C5F4472698F
:10470C007665722F5372632F73746D333266317802
:10471C00785F68616C5F7263635F65782E6300001D
:10472C002E2E2F447269766572732F53544D33328B
:10473C00463178785F48414C5F4472697665722FD8
:10474C005372632F73746D3332663178785F68619E
:10475C006C5F756172742E63000000002000000015
:10476C005F0000002E2E2F5372632F6932632E636D
:10477C0000000000436F6E66696775726174696F43
:10478C006E0000006D6F646500000000537563637C
:10479C0065737366756C6C79000000006164646508
:1047AC00640000004D4158204C494D495400000014
:1047BC005245414348454400454550524F4D000039
:1047CC00436C6561726564004E6F0000456E7472D7
:1047DC00696573002E2E2F5372632F6D61696E2ED7
:1047EC006300000053795374456D20735461527407
:1047FC00496E470031323334000000002E2E2F5307
:10480C0072632F75736172742E6300002E2E2F53FA
:10481C0072632F7573622E630000000030313233E7
:10482C003435363738396162636465666768696A3E
:10483C006B6C6D6E6F707172737475767778797A44
:10484C00004300504F534958002E000020202020D8
:10485C002020202020282828282820202020202024
:10486C002020202020202020202020208810101004
:10487C00101010101010101010101010040404045C
:10488C0004040404040410101010101010414141D1
:10489C00414141010101010101010101010101013C
:1048AC0001010101010101101010101010424242CF
:1048BC00424242020202020202020202020202020C
:1048CC00020202020202021010101020000000006E
:1048DC0000000000000000000000000000000000CC
:1048EC0000000000000000000000000000000000BC
:1048FC0000000000000000000000000000000000AC
:10490C00000000000000000000000000000000009B
:10491C00000000000000000000000000000000008B
:10492C00000000000000000000000000000000007B
:10493C00000000000000000000000000000000006B
:0C494C000000000000000000000000005F
:044958003101000821
:04495C000D01000841
:10496000010000001000000000A24A041000002016
:104970000000000000000000000000000000000037
:104980000000000000000000000000000000000027
:104990000000000000000000000000000000000017
:1049A0000000000000000000000000000000000007
:1049B00000000000000000000000000000000000F7
:1049C00000000000000000000000000000000000E7
:1049D0004300000000000000000000000000000094
:1049E00000000000000000000000000000000000C7
:1049F0004300000000000000000000000000000074
:104A000000000000000000000000000000000000A6
:104A10004300000000000000000000000000000053
:104A20000000000000000000000000000000000086
:104A30004300000000000000000000000000000033
:104A40000000000000000000000000000000000066
:104A50004300000000000000000000000000000013
:104A60000000000000000000000000000000000046
:104A700043000000000000000000000000000000F3
:104A80000000000000000000000000000000000026
:104A900043000000000000000000000000000000D3
:104AA0000000000000000000000000000000000006
:104AB000194500082144000800000000574800087C
:104AC000554800085648000856480008564800084F
:104AD000564800085648000856480008564800083E
:104AE0005648000856480008FFFFFFFFFFFFFFFF82
:104AF000FFFFFFFFFFFF0000010041534349490052
:104B000000000000000000000000000000000000A5
:104B1000000000000000000000004153434949002C
:104B20000000000000000000000000000000000085
:0C4B300000000000000000000000000079
:04000005080040D9D6
:00000001FF
