:020000040800F2
:100000000050002019390008A1360008A336000866
:10001000A5360008A7360008A93600080000000031
:10002000000000000000000000000000AB360008E7
:10003000AD36000800000000AF360008B1360008F9
:100040006139000861390008613900086139000828
:100050006139000861390008613900086139000818
:100060006139000861390008613900086139000808
:1000700061390008613900086139000861390008F8
:10008000BD360008CD360008613900086139000826
:1000900061390008613900086139000861390008D8
:1000A00061390008613900086139000861390008C8
:1000B000613900086139000861390008DD3600083F
:1000C000ED3600086139000861390008613900081F
:1000D00061390008FD360008613900080D37000855
:1000E000613900086139000861390008000000002A
:1000F0000000000000000000000000000000000000
:0C01000000000000000000005FF808F1A3
:10010C0010B5054C237833B9044B13B10448AFF345
:10011C0000800123237010BD10000020000000009F
:10012C00AC39000808B5034B1BB103490348AFF3C6
:10013C00008008BD0000000014000020AC3900084D
:10014C00034613F8012B002AFBD1181A013870470B
:10015C0010B504460E4B18784FF47A73B3FBF0F3DA
:10016C000C4A1068B0FBF3F000F0C8F868B90F2C1B
:10017C0001D901200AE0002221464FF0FF3000F0A7
:10018C0061F8034B5C60002000E0012010BD00BF53
:10019C00000000200C00002008B5074A136843F04B
:1001AC0010031360032000F02FF80020FFF7D0FF9E
:1001BC0003F020FA002008BD00200240034A116819
:1001CC00034B1B780B441360704700BF3C000020AE
:1001DC0000000020014B1868704700BF3C00002055
:1001EC0038B50446FFF7F6FF0546B4F1FF3F02D0E1
:1001FC00044B1B781C44FFF7EDFF401BA042FAD3C5
:10020C0038BD00BF0000002010B50446C31E042BEF
:10021C000FD80A4AD36823F4E0631B041B0C240296
:10022C0004F4E064234343F0BF6343F40033D3602E
:10023C0010BDA221024803F0DBF9EAE700ED00E073
:10024C00F039000870B505460C4616460F2A25D81D
:10025C000F2C28D81B4BDB68C3F30223C3F1070216
:10026C00042A28BF0422191D062921D9033B4FF06B
:10027C00FF3101FA02F224EA02049C4001FA03F372
:10028C0026EA03063443002D14DB2401E4B205F105
:10029C00604505F5614585F8004370BDBA210A48F3
:1002AC0003F0A6F9D4E7BB21074803F0A1F9D1E785
:1002BC000023DCE705F00F052401E4B2034B5C5589
:1002CC00EBE700BF00ED00E0F039000814ED00E0B2
:1002DC0010B5041E08DB04F01F02640901239340CF
:1002EC00044A42F8243010BDCE21034803F080F9B3
:1002FC00F1E700BF00E100E0F03900080138B0F18F
:10030C00807F0AD2064B5860064AF02182F82310EF
:10031C000020986007221A6070470120704700BFC8
:10032C0010E000E000ED00E010B50446042800D019
:10033C0038B9042C0BD0094A136823F0040313605A
:10034C0010BD40F2D911064803F052F9F1E7034A07
:10035C00136843F004031360F2E700BF10E000E001
:10036C00F0390008704708B5FFF7FCFF08BD000026
:10037C00002800F09D8010B5044603684D4A934256
:10038C0015D01432934212D0143293420FD014323F
:10039C0093420CD01432934209D01432934206D0BB
:1003AC001432934203D0AA21434803F021F9636825
:1003BC0023B1102B02D0B3F5804F56D1A368402B3C
:1003CC0001D0002B56D1E368802B01D0002B56D1E5
:1003DC0023692BB1B3F5807F02D0B3F5007F53D1E5
:1003EC0063692BB1B3F5806F02D0B3F5006F50D1B8
:1003FC00A3690BB1202B51D1E36943B1B3F5805FF5
:10040C0005D0B3F5005F02D0B3F5405F4BD1226845
:10041C002A4B13442A49A1FB03131B099B00236499
:10042C00284BE363022384F82130116821F47F51B7
:10043C0021F030016368A0680343E068034320693E
:10044C00034360690343A0690343E06903430B431F
:10045C0013600020A062E06220636063A06301234C
:10046C0084F8213084F8200010BDAB21124803F031
:10047C00BFF8A3E7AC21104803F0BAF8A3E7AD210D
:10048C000D4803F0B5F8A3E7AE210B4803F0B0F824
:10049C00A6E7AF21084803F0ABF8A9E7B02106485E
:1004AC0003F0A6F8A8E7B121034803F0A1F8AEE7E2
:1004BC0001207047080002402C3A0008F8FFFDBFED
:1004CC00CDCCCCCC0000024008B590F82130022BEA
:1004DC0003D004238363012008BD0268136823F052
:1004EC000E0313600268136823F0010313600368A2
:1004FC00194A934214D0143293421FD014329342AF
:10050C001ED0143293421ED0143293421ED0143299
:10051C00934202D04FF0807203E04FF4801200E05F
:10052C0001220E4B5A60012380F82130002380F801
:10053C002030436B6BB198470020CDE71022F0E7D9
:10054C004FF48072EDE74FF48052EAE74FF48032BB
:10055C00E7E70020C0E700BF0800024000000240AF
:10056C0038B5C36B1A6804682568016C04238B408A
:10057C00134235D015F0040F32D0236813F0200F3E
:10058C0003D1236823F0040323600368434A934296
:10059C0014D01432934218D01432934217D0143220
:1005AC00934217D01432934217D01432934202D094
:1005BC004FF0806203E04FF4800200E00422384BDD
:1005CC005A60C36A03B1984738BD4022F7E74FF42D
:1005DC008062F4E74FF48042F1E74FF48022EEE7BB
:1005EC0002238B4013423CD015F0020F39D0236804
:1005FC0013F0200F06D1236823F00A032360012394
:10060C0080F821300368254A934214D01432934267
:10061C001CD0143293421BD0143293421BD0143290
:10062C0093421BD01432934202D04FF0007203E07D
:10063C004FF4001200E00222194B5A60002380F89C
:10064C002030836A002BBFD09847BDE72022F3E708
:10065C004FF40072F0E74FF40052EDE74FF4003224
:10066C00EAE7082303FA01F11142ADD015F0080FA7
:10067C00AAD0236823F00E032360026CC16B012304
:10068C0003FA02F24A60836380F82130002380F879
:10069C002030036B002B97D0984795E70800024059
:1006AC00000002402DE9F04383B080460F46B64B64
:1006BC00984213D003F5806398420FD003F5806302
:1006CC0098420BD003F58063984207D003F5806302
:1006DC00984203D0CD21AD4802F08AFF3B689AB214
:1006EC0012B11B0C1B041BB1CE21A84802F080FFD9
:1006FC007B68012B1ED9112B1CD0022B1AD0122B6C
:10070C0018D0A34A934215D002F58012934211D00F
:10071C0002F5801293420DD0A2F5F812934209D043
:10072C0002F58012934205D002F58012934201D05B
:10073C00032B03D14FF000094E46D8E0CF2193484C
:10074C0002F056FFF6E7002B5ED0012B05D1FB68BB
:10075C00013B022B65D8D7F80C90FF2C00F2968049
:10076C004046FF2C00F29580B20003680F219140A7
:10077C0023EA010309FA02F2134303607B6813F0C6
:10078C00805F00F0B380834B9A6942F001029A615A
:10079C009B6903F001030193019BB208911C7E4BF2
:1007AC0053F8210006F0030399000F238B4020EA35
:1007BC000300754B984572D003F58063984500F0A3
:1007CC00CD8003F58063984500F0CA8003F5806303
:1007DC00984562D0042363E0704A934214D00BD93D
:1007EC006F4A934210D002F5803293420CD0A2F59E
:1007FC0080129342B1D107E0A2F58012934203D04C
:10080C0002F580329342A8D1BB68022B2DD8BB686D
:10081C00002B38D0012B2ED0C8F814504FF00809FB
:10082C009BE7E521594802F0E3FE94E7EC21574899
:10083C0002F0DEFE8EE0FB68013B022B03D8FB6866
:10084C0003F1080989E7F321504802F0D1FEF6E7DD
:10085C00FB68013B022B03D8FB6803F10C097CE716
:10086C00FA214A4802F0C4FEF6E740F20711474865
:10087C0002F0BEFECBE7C8F810504FF008096CE749
:10088C004FF0000969E74FF0040966E708F104002E
:10089C0067E7A6F10802920067E7032300E0002354
:1008AC008B40034302323C4941F822307B6813F4FD
:1008BC00803F57D03B4A1368234313607B6813F483
:1008CC00003F55D0374A5368234353607B6813F479
:1008DC00801F53D0334A9368234393607B6813F48F
:1008EC00001F61D02F4AD3681C43D46001360F2EF1
:1008FC0060D80125B5403C682C40A542F6D1224B6E
:10090C00984513D003F5806398450FD003F58063A9
:10091C0098450BD003F58063984507D003F58063A9
:10092C00984503D0DD21194802F062FE7B68122B3A
:10093C008ED03FF651AF022B3FF47DAF7FF603AF65
:10094C00032B9DD0112B7FF408AFFB68013B022BCE
:10095C003FF66CAFFB6803F10409FEE601239FE749
:10096C0002239DE70F4A136823EA04031360A5E7EB
:10097C000C4A536823EA04035360A7E7094A9368B7
:10098C0023EA04039360A9E700080140643A0008D5
:10099C000000111000100240000001400000211066
:1009AC000000311000040140044AD36823EA040417
:1009BC00D4609BE703B0BDE8F08300BF00040140A6
:1009CC0070B5064615460C4629B1012D09D875B9E6
:1009DC002404346170BD40F2E311064802F008FEB5
:1009EC00F3E74FF4F271034802F002FEEFE73461D3
:1009FC00F0E700BF643A000890F83E30DBB2402BC1
:100A0C0013D00369B3F5804F1ED0036D002B2DD08E
:100A1C00036D012B33D1436CC3F3C813026803F08D
:100A2C00060343F0F103136129E0036D2BB9436C0A
:100A3C00026803F0FE03136121E0436C026843F08B
:100A4C000103DBB213611AE090F83D30DBB2212BCD
:100A5C0006D0436C026843F00103DBB213610EE075
:100A6C00436C026803F0FE03136108E0436CC3F3AC
:100A7C00C813026803F0060343F0F003136100206F
:100A8C007047436C0268DBB213610020704710B4EE
:100A9C008DB090F83E30DAB2C16A046B90F83D30FC
:100AAC00DBB2222B0BD000230B9303685A690B92F9
:100ABC009B690B930B9B00200DB010BC7047036D12
:100ACC000BB9402A17D0036D1BB90369B3F5404F1E
:100ADC0019D0438D9BB2002B25D1039303685A691F
:100AEC0003929A690392039A1A6842F400721A608C
:100AFC0000230365DFE7019303685A6901929B6940
:100B0C000193019BD7E70023029303685A69029271
:100B1C009A690292029A1A6842F480721A60036D02
:100B2C0001330365C7E7438D9BB2012B1AD0438D6C
:100B3C009BB2022B6BD00268136843F48063136082
:100B4C0003685A6812F4006F03D05A6842F480525A
:100B5C005A6000230A9303685A690A929B690A93A4
:100B6C000A9BC5E711F5803F16D004293DD0082912
:100B7C003BD0122C39D0C36A022B30D002681368D8
:100B8C0023F4806313600023069303685A6906926A
:100B9C009B690693069BABE70268136823F480639A
:100BAC00136003685A6812F4006F0CD01A6822F4B0
:100BBC0080621A600023049303685A6904929B694B
:100BCC000493049B94E7002205925A6905929A6952
:100BDC000592059A1A6842F400721A6088E7026856
:100BEC00136843F480631360CDE70268136823F441
:100BFC00806313600023079303685A6907929A690C
:100C0C000792079A1A6842F400721A6070E7C36A76
:100C1C00022B1BD00268136843F40063136000239B
:100C2C00089303685A6908929A690892089A1A6894
:100C3C0022F480621A6003685A6812F4006F3FF461
:100C4C0057AF5A6842F480525A6051E702681368F1
:100C5C0043F4806313600023099303685A69099273
:100C6C009B690993099BE6E7438D9BB24BB1436AA1
:100C7C005A1C426202681B781361438D013B9BB284
:100C8C00438500207047438D9BB24BB103681A69B2
:100C9C00436A591C41621A70438D013B9BB24385D8
:100CAC000020704703685A6912F4806F0DD06FF4FE
:100CBC0080625A610423036400230363202280F8BA
:100CCC003D2080F83C300120704700207047F8B57B
:100CDC0006460C4617461D461EE02DB1FFF77AFA64
:100CEC00069BC01AA84217D900233363202286F82A
:100CFC003D2086F83E3086F83C3003201AE03368FD
:100D0C005B6924EA03039BB2B3FA83F35B099F424A
:100D1C000FD1B5F1FF3FE0D1C4F30743012BEED067
:100D2C0033689B6924EA03039BB2B3FA83F35B0930
:100D3C00EDE70020F8BDF8B504460D4616461F46F3
:100D4C0032E01A6842F400721A6023686FF4806211
:100D5C005A610423236400232363202284F83D205A
:100D6C0084F83C3001202DE026B1FFF733FAC01B8C
:100D7C00B04219D900232363202284F83D2084F843
:100D8C003C3003201EE023685B6925EA03039BB219
:100D9C00003318BF0123A3B123685A6912F4806F82
:100DAC00CFD1B6F1FF3FDFD1C5F30743012BEAD01A
:100DBC0023689B6925EA03039BB2003318BF012308
:100DCC00E9E70020F8BD0000F0B583B004460D46FD
:100DDC0016461F46C36A042B0DD0012B0BD013F5FE
:100DEC00803F08D0036B122B0AD10268136843F4BE
:100DFC008073136004E02268136843F480731360FB
:100E0C000097334600224FF001112046FFF75FFF99
:100E1C0058BB2369B3F5804F10D1236805F0FE054C
:100E2C001D613B46324615492046FFF784FF0346B9
:100E3C00E0B1236C042B1ED1012317E0EB112268C7
:100E4C0003F0060343F0F00313613B4632460C49B2
:100E5C002046FFF770FF20B1236C042B09D101232E
:100E6C0004E02368EDB21D61DBE70323184603B0F1
:100E7C00F0BD0323FAE70323F8E700BF02000100EB
:100E8C000800010070B504460D46164623685B69E0
:100E9C0013F0800F19D12046FFF704FFB8B9B5F154
:100EAC00FF3FF3D025B1FFF795F9801BA842EDD990
:100EBC00236C43F02003236400232363202284F853
:100ECC003D2084F83C30032000E0002070BD012060
:100EDC00FCE770B504460D46164623685B6913F0B3
:100EEC00040F19D12046FFF7DDFEB8B9B5F1FF3F6D
:100EFC00F3D025B1FFF76EF9801BA842EDD9236C16
:100F0C0043F02003236400232363202284F83D2034
:100F1C0084F83C30032000E0002070BD0120FCE789
:100F2C00002800F0078138B504460368834A9342D1
:100F3C0008D002F58062934204D040F27D118048C3
:100F4C0002F056FB6368013B7E4A934275D8A36856
:100F5C0013B1B3F5804F76D1E36823F47F7323F09C
:100F6C000303002B75D12369B3F5804F02D0B3F581
:100F7C00404F74D16369012B77D8A36933F0FE031A
:100F8C0079D1E3690BB1402B7BD1236A0BB1802B58
:100F9C007DD194F83D30002B7FD0242384F83D3054
:100FAC002268136823F00103136001F0D7FB626819
:100FBC00654B9A4277D8654B98428CBF002301232E
:100FCC00002B40F0B980624BA3FB00239B0C2268E2
:100FDC00536061685C4A91426BD80133226813629A
:100FEC006168594B99426ED8431E4900B3FBF1F32B
:100FFC000133C3F30B03042B38BF04232268D361E2
:10100C00E369216A22680B4313602369E168226853
:10101C000B4393606369A16922680B43D360226818
:10102C00136843F00103136000202064202384F82C
:10103C003D30206384F83E0038BD4FF4BF7140480A
:10104C0002F0D6FA83E740F27F113D4802F0D0FA65
:10105C0082E74FF4C0713A4802F0CAFA83E740F2D3
:10106C008111374802F0C4FA84E74FF4C171344857
:10107C0002F0BEFA81E740F28311314802F0B8FA6F
:10108C007FE74FF4C2712E4802F0B2FA7DE740F2CE
:10109C0085112B4802F0ACFA7BE784F83C302046F3
:1010AC0002F058F979E72B4B98428CBF00230123AF
:1010BC0086E74FF4967202FB03F3274AA2FB032345
:1010CC009B0901338AE7A368BBB9421E01EB4105BA
:1010DC00B2FBF5F20132C2F30B02B2FA82F2520900
:1010EC0032BBC3B9013801EB4103B0FBF3F301335D
:1010FC00C3F30B0343F4004380E7421E01EB81056D
:10110C0005EB8505B2FBF5F20132C2F30B02B2FA24
:10111C0082F25209E4E7013801EB810303EB83030C
:10112C00B0FBF3F30133C3F30B0343F4404365E724
:10113C00012363E70120704701207DE70054004044
:10114C00A03A00087F1A0600A08601007F841E00CA
:10115C0083DE1B43FF083D00D34D62102DE9F041A7
:10116C0084B004460E4690461F46FFF733F894F8B9
:10117C003D30DBB2202B04D00226304604B0BDE853
:10118C00F081054600901923012254492046FFF7AF
:10119C009EFD002840F0998094F83C30012B00F023
:1011AC009680012384F83C3023681A6812F0010FF2
:1011BC0003D11A6842F001021A602268136823F402
:1011CC0000631360212384F83D30102384F83E30F3
:1011DC0000232364C4F824806785A3F58033E3627D
:1011EC00638D23852B460A9A31462046FFF7ECFD8A
:1011FC00064660B1236C042B04D1002384F83C30E8
:10120C000126BAE7002384F83C300326B5E7002317
:10121C00039323685A6903929B690393039B10E021
:10122C00236C042B55D12268136843F400731360AC
:10123C000126A2E72A460A992046FFF74AFE002813
:10124C002BD1238D002B32D02A460A992046FFF74A
:10125C0019FE0028E4D1636A5A1C626222681B786A
:10126C001361638D013B9BB26385238D013B9BB264
:10127C0023852268516911F0040FDBD0002BD9D0E3
:10128C00636A591C61621B781361638D013B9BB2CD
:10129C006385238D013B2385CCE7236C042B1AD16A
:1012AC002268136843F400731360012665E7226813
:1012BC00136843F400731360202384F83D3000233B
:1012CC0084F83E3084F83C3057E7022655E7022676
:1012DC0053E7032651E703264FE700BF0200100037
:1012EC002DE9F04385B00446884691461D46FEF72D
:1012FC0071FF94F83D30DBB2202B04D0022318464A
:10130C0005B0BDE8F083064600901923012256492A
:10131C002046FFF7DCFC002840F09B8094F83C3022
:10132C00012B00F09880012384F83C3023681A6864
:10133C0012F0010F03D11A6842F001021A60226800
:10134C00136823F400631360242384F83D300023D6
:10135C002364A3F58033E362012735E0A02384F8EE
:10136C003D3022685369C3F340035269C2F38022B3
:10137C0094F83D10C9B253B94AB9A02907D0002D31
:10138C00ECD0FEF727FF801BA842EAD9E6E7202322
:10139C0084F83D3023685A6912F0020F35D11A686F
:1013AC0042F400721A6023686FF480625A610096EE
:1013BC00192301222C492046FFF789FC002850D123
:1013CC007B1C4F453DD21F462268136843F4807343
:1013DC00136000962B4600224FF001112046FFF7B8
:1013EC0076FC002839D1236808F0FE021A61FEF75A
:1013FC00F1FE064622685369C3F340035269C2F3F7
:10140C00802294F83D10C9B2B5E71A6842F4007214
:10141C001A600023039323685A6903929B69039310
:10142C00039B0096192301220F492046FFF74FFC1E
:10143C000346A0B9202284F83D20002284F83C20E9
:10144C005DE7202384F83D30002384F83C300123F1
:10145C0055E7022353E7022351E703234FE7032306
:10146C004DE703234BE700BF0200100070477047A5
:10147C00704708B590F83D30DAB2438D9BB273B12A
:10148C00436A591C416201681B780B61438D013B17
:10149C009BB24385438D9BB20BB9292A01D0002006
:1014AC0008BD0268536823F48063536021230363EF
:1014BC00282380F83D30FFF7DBFFF0E7704790F80A
:1014CC003D30DAB2438D9BB2F3B110B503681969A4
:1014DC00436A5C1C44621970438D013B9BB243858B
:1014EC00438D9BB20BB92A2A01D0002010BD026893
:1014FC00536823F48063536022230363282380F80A
:10150C003D30FFF7DBFFF0E700207047704708B570
:10151C0003689A6912F0040F09D000219B6913F03B
:10152C00800F06D0028BFFF7F1FF002008BD0121D0
:10153C00F4E78289F7E7704708B590F83D30DBB2E5
:10154C00C26A042A01D0082A01D1282B07D0212BEA
:10155C001FD003686FF480625A61002008BD1A4BDB
:10156C00C3620268536823F4E063536003686FF44A
:10157C0080625A610268136823F48063136000234D
:10158C000363202280F83D2080F83E30FFF7D3FF24
:10159C00E3E70D4BC36221230363202380F83D3026
:1015AC00002380F83E300268536823F4E0635360F4
:1015BC0003686FF480625A610268136823F48063D5
:1015CC001360FFF755FFC8E70000FFFF704710B529
:1015DC0090F83D30DBB290F83E20D2B2C46A018D57
:1015EC0009B9212B05D0212B3CD0402A38D0002022
:1015FC0010BD042C04D0082C02D014F5803F19D156
:10160C000268536823F4E06353600268136843F480
:10161C000073136000230363202380F83D3090F89F
:10162C003E30DBB2402B15D0002380F83E30FFF764
:10163C001DFFDCE70268536823F4E0635360112359
:10164C000363002380F83E30202380F83D30FFF701
:10165C000DFFCCE7002380F83E30FFF7B7FFC6E75D
:10166C00222BC4D1438D9BB27BB190F83E30DBB2C0
:10167C00402B10D0436A5A1C426202681B781361DB
:10168C00438D013B9BB24385B1E70268536823F459
:10169C0080635360ABE7036D9BB9C36C012B08D01F
:1016AC00836CC3F3072302681361036D0133036575
:1016BC009DE7836C0268DBB21361036D0233036533
:1016CC0095E7036D012B17D0036D022B8FD190F88A
:1016DC003D30DBB2222B17D090F83D30DBB2212B02
:1016EC0085D1436A5A1C426202681B781361438D90
:1016FC00013B9BB243857AE7836C0268DBB21361D2
:10170C00036D0133036572E70268136843F4807359
:10171C0013606CE708B5C26A90F83D30DBB2212B40
:10172C0001D0002008BD438D9BB203BB042A04D01A
:10173C00082A02D012F5803F24D10268536823F4A2
:10174C00E06353600268136843F400731360002372
:10175C000363202380F83D3090F83E30DBB2402B01
:10176C0020D0002380F83E30FFF780FED9E7436A93
:10177C005A1C426202681B781361438D013B9BB279
:10178C004385CEE70268536823F4E063536011236A
:10179C000363002380F83E30202380F83D30FFF7B0
:1017AC0065FEBEE7002380F83E30FFF70FFFB8E779
:1017BC00704708B590F83D30DBB2222B01D00020E9
:1017CC0008BD438D9BB2032B29D8023B012B31D989
:1017DC00C36A022B47D00268136823F4806313603A
:1017EC000268536823F4E063536003681A69436A20
:1017FC00591C41621A70438D013B9BB243852023D7
:10180C0080F83D300023036390F83E30DBB2402B70
:10181C002FD0002380F83E30FFF729FECFE7036876
:10182C001A69436A591C41621A70438D013B9BB281
:10183C004385C4E7C36A022B0FD00268136823F4F4
:10184C00806313600268136843F4006313600268DA
:10185C00536823F480635360B1E70268136843F460
:10186C0080631360F3E70268136843F480631360CA
:10187C00B6E7002380F83E30FFF79AFF9FE708B5E4
:10188C00C26A438D9BB2032B0FD0438D9BB2022BAC
:10189C0022D003681A69436A591C41621A70438D3D
:1018AC00013B9BB24385002008BD042A04D0082AC2
:1018BC0002D012F5803F04D10268136823F48063D0
:1018CC00136003681A69436A591C41621A70438D8C
:1018DC00013B9BB24385E6E7042A17D0082A15D0B2
:1018EC0012F5803F12D0022A0AD00268136823F442
:1018FC00806313600268536823F4407353600FE0F5
:10190C000268136843F480631360F3E7026853685A
:10191C0023F4407353600268136843F4007313603C
:10192C0003681A69436A591C41621A70438D013B62
:10193C009BB2438503681A69436A591C41621A7049
:10194C00438D013B9BB24385202380F83D3000231F
:10195C00036390F83E30DBB2402B05D0002380F8B7
:10196C003E30FFF784FD9EE7002380F83E30FFF702
:10197C001FFF98E77047704710B5044690F83D304C
:10198C00293B012B36D990F83D30DBB2602B07D0C8
:10199C0003685B6813F4006F02D1202380F83D309C
:1019AC000023236384F83E302268136823F4006319
:1019BC00136023685A6812F4006F3ED05A6822F400
:1019CC0000625A60636B93F82120012A18D03A4ABE
:1019DC005A63606BFEF778FD00283FD022681368CD
:1019EC0023F001031360202384F83D30606B436BBC
:1019FC00984733E000230363282380F83D30D3E776
:101A0C00A36B2D4A5A63A06BFEF75EFD30B32368BF
:101A1C005A6912F0400F04D01A69636A591C61624A
:101A2C001A702268136823F001031360202384F8D2
:101A3C003D30A06B436B984710E094F83D20D2B238
:101A4C00602A11D05A6912F0400F04D01A69636AE7
:101A5C00591C61621A702046FFF78CFF94F83D30D8
:101A6C00DBB2282B17D010BD202284F83D20002299
:101A7C0022645A6912F0400F04D01A69636A591C27
:101A8C0061621A702268136823F001031360204608
:101A9C00FFF771FFE2E7236C13F0040FE3D0074B61
:101AAC00E36200232363202284F83D2084F83E3037
:101ABC002046FFF740FDD6E7111E00080000FFFF8F
:101ACC0010B582B090F83D30DBB201684A6822F460
:101ADC00E0624A600022019202685169019111682A
:101AEC0041F001011160019A01680A6822F48062D8
:101AFC000A6001684A6812F4006F14D090F83D2017
:101B0C00D2B2222A0AD090F83D20D2B22A2A05D08D
:101B1C00426B1268526892B2428504E0826B126882
:101B2C00526892B24285428D92B2F2B14A6912F079
:101B3C00040F08D00969426A541C44621170428D2A
:101B4C00013A92B242850268516911F0400F08D0F7
:101B5C001169426A541C44621170428D013A92B26E
:101B6C004285026C42F004020264026CA2B9282B7A
:101B7C0015D02A2B13D0292B11D0026B222A01D07D
:101B8C00222B17D100230363202280F83D2080F8FC
:101B9C003E30FFF793FC0DE0FFF7EEFE0AE0074B3B
:101BAC00C36200230363202280F83D2080F83E307E
:101BBC00FFF7C1FC002002B010BD00BF0000FFFF0A
:101BCC00F8B5054603689F695C695E6890F83E301D
:101BDC00DBB2102B25D0402B23D04C4B234013B120
:101BEC0016F4007F6ED14A4B234013B116F4007FDC
:101BFC006BD1484B3B40002B6FD0474B234033B14C
:101C0C0016F4806F03D0454B2340002B61D0434B1F
:101C1C00234053B316F4007F27D02846FFF724F84F
:101C2C0023E014F0011F02D016F4007F1ED13C4BB0
:101C3C00234013B116F4007F1CD1344B234013B155
:101C4C0016F4007F1AD1334B3B401BB3324B23406D
:101C5C002BB116F4806F02D0304B234093B12F4B35
:101C6C00234013B116F4007F10D1F8BD2846FEF7BF
:101C7C00C3FEE8E72846FEF704FFE4E72846FEF734
:101C8C0006FFE0E72846FFF7A2FCEEE72846FFF741
:101C9C0041FDEAE7234B23402BB116F4806F02D0B1
:101CAC001E4B234053B11D4B2340002BDDD016F4AB
:101CBC00007FDAD02846FFF7E2FDD6E72846FFF78B
:101CCC0078FDD2E7FFF723FCCFE72846FFF7F8FEB5
:101CDC00CBE72846FFF7CDFBC7E7124B23402BB1D0
:101CEC0016F4806F02D00D4B234053B10B4B2340A5
:101CFC00002BBAD016F4007FB7D02846FEF7C3FFEE
:101D0C00B3E72846FFF7DBFBAFE700BF020001009B
:101D1C00100001000400100080000100040001000C
:101D2C00080001004000010070B5044603685D69BD
:101D3C005E68334A15420ED016F4807F0BD0026CCD
:101D4C0042F0010202646FF480725A6102681368F7
:101D5C0043F40043136015F4813F0AD016F4807FDE
:101D6C0007D0236C43F00203236423686FF40072E2
:101D7C005A6115F4823F1AD016F4807F17D094F86C
:101D8C003E30DBB2628D91B294F83D20D2B2206B22
:101D9C00202B1DD0236C43F00403236494F83E30B5
:101DAC00DBB2102B22D023686FF480625A6115F4D9
:101DBC00843F0AD016F4807F07D0236C43F00803CD
:101DCC00236423686FF400625A61236CA3B970BD5D
:101DDC000029DFD1212A05D0292A03D0282AD9D1DC
:101DEC002128D7D12046FFF7A7FBE0E7226813682C
:101DFC0043F400731360D6E72046FFF7BDFDE6E71A
:101E0C000001010008B5406A0268136823F480637E
:101E1C00136000234385426B5363826B536390F8CA
:101E2C003D30DBB2602B0DD0202380F83D300023F9
:101E3C0080F83E300268136823F001031360FFF74B
:101E4C0099FD08BD202380F83D30002380F83E30FA
:101E5C0003640268136823F001031360FFF78BFD22
:101E6C00EFE7000000286FD0F0B587B00446026899
:101E7C00364B9A4203D09F21354801F0B9FB94F8B8
:101E8C002934C3B1032384F82934206801F01FF9E5
:101E9C00254655F8107B6E460FCD0FC62B68336068
:101EAC00231D0ECB384601F003F90021206801F008
:101EBC0018F9002316E084F82834204601F010FDB0
:101ECC00E0E704EB4312012182F8291082F8283054
:101EDC009386002182F82B109163D1639A1C5201D6
:101EEC00A15001330E2BECD9002312E004EB43126A
:101EFC00002182F8291282F82832938682F82B125C
:101F0C00C2F83812C2F83C1203F112025201A1506D
:101F1C0001330E2BEAD9254655F8107B6E460FCDB2
:101F2C000FC62B683360231D0ECB384601F0DBF84F
:101F3C00002584F82450012384F82934206801F00A
:101F4C00E8F8284607B0F0BD01207047005C00405F
:101F5C00D83A000882B0084B1B68084AA2FB03233E
:101F6C005B0A00FB03F0019000BF019B5A1E01921B
:101F7C00002BF9D102B070470C000020D34D621039
:101F8C0070B582B0044678B3236813B113F00F0F09
:101F9C0030D0236813F0010F46D063682BB1B3F532
:101FAC00803F02D0B3F5A02F2AD1AC4B5B6803F075
:101FBC000C03042B2FD0A94B5B6803F00C03082BEC
:101FCC0024D06368B3F5803F5BD0002B6FD103F155
:101FDC00804303F504331A6822F480321A601A68BD
:101FEC0022F480221A6051E04FF4B8719C4801F041
:101FFC00FFFAC9E740F27111994801F0F9FAC8E704
:10200C0040F27711964801F0F3FACEE7934B5B68F8
:10201C0013F4803FD5D0914B1B6813F4003F03D0D1
:10202C006368002B00F02D82236813F0020F00F080
:10203C008A802369012B63D863691F2B66D8874B71
:10204C005B6813F00C0F6CD0844B5B6803F00C03D3
:10205C00082B61D02369002B00F09A80814B012260
:10206C001A60FEF7B7F805467C4B1B6813F0020F9D
:10207C0040F08580FEF7AEF8401B0228F4D903200F
:10208C0002E2764A136843F480331360636843B307
:10209C00FEF7A0F80546714B1B6813F4003FC3D143
:1020AC00FEF798F8401B6428F5D90320ECE1B3F552
:1020BC00A02F09D0694B1A6822F480321A601A6872
:1020CC0022F480221A60E1E703F18043A3F53C334C
:1020DC001A6842F480221A601A6842F480321A603C
:1020EC00D4E7FEF777F805465C4B1B6813F4003F0A
:1020FC009AD0FEF76FF8401B6428F5D90320C3E192
:10210C0040F2AB11564801F073FA95E74FF4D671D3
:10211C00534801F06DFA92E7504B5B6813F4803F23
:10212C0098D14E4B1B6813F0020F04D02369012B7E
:10213C0001D00120A8E1494A136823F0F803616932
:10214C0043EAC1031360236813F0080F3BD0A36963
:10215C00012B2FD8A369002B66D0434B01221A60A8
:10216C00FEF738F805463D4B5B6A13F0020F27D19A
:10217C00FEF730F8401B0228F5D9032084E1374ADA
:10218C00136823F0F803616943EAC1031360DAE7CB
:10219C00344B00221A60FEF71DF805462F4B1B68C6
:1021AC0013F0020FCFD0FEF715F8401B0228F5D91B
:1021BC00032069E14FF4F671294801F019FAC9E7D7
:1021CC000120FFF7C7FE236813F0040F00F0A58071
:1021DC00E368012B01D9052B38D1204BDB6913F0B7
:1021EC00805F39D11D4BDA6942F08052DA61DB69CC
:1021FC0003F080530193019B01251C4B1B6813F4C6
:10220C00807F35D0E368012B46D0002B5CD103F1E5
:10221C00804303F504331A6A22F001021A621A6A27
:10222C0022F004021A623CE00F4B00221A60FDF708
:10223C00D1FF0546094B5B6A13F0020FC3D0FDF7C3
:10224C00C9FF401B0228F5D903201DE140F21B21D8
:10225C00034801F0CDF9C0E70025CEE7001002409D
:10226C00103B0008000042428004424200700040D3
:10227C00874A136843F480731360FDF7ABFF06467F
:10228C00834B1B6813F4807FBCD1FDF7A3FF801B2D
:10229C006428F5D90320F7E07E4A136A43F0010362
:1022AC001362E36833B3FDF795FF0646794B1B6A5F
:1022BC0013F0020F2FD1FDF78DFF801B41F28833F5
:1022CC009842F3D90320DFE0052B09D0714B1A6A31
:1022DC0022F001021A621A6A22F004021A62E0E782
:1022EC006C4B1A6A42F004021A621A6A42F001023A
:1022FC001A62D6E7FDF76EFF0646664B1B6A13F0B3
:10230C00020F08D0FDF766FF801B41F2883398421C
:10231C00F3D90320B8E0002D53D1E369022B56D832
:10232C00E369002B00F0AF805A4A526802F00C02AD
:10233C00082A00F0AB80022B40F08F80236A13B187
:10234C00B3F5803F49D1636A4BB3B3F5802F26D0E8
:10235C00B3F5002F23D0B3F5402F20D0B3F5801F59
:10236C001DD0B3F5A01F1AD0B3F5C01F17D0B3F50D
:10237C00E01F14D0B3F5001F11D0B3F5101F0ED011
:10238C00B3F5201F0BD0B3F5301F08D0B3F5401FA9
:10239C0005D0B3F5501F02D0B3F5601F23D13E4BCF
:1023AC0000221A60FDF716FF05463A4B1B6813F026
:1023BC00007F1ED0FDF70EFF401B0228F5D903202D
:1023CC0062E0344AD36923F08053D361A5E740F22D
:1023DC00B921324801F00CF9A2E740F2C2212F4892
:1023EC0001F006F9AFE740F2C3212C4801F000F9E7
:1023FC00D5E7236AB3F5803F1AD026494B6823F4FE
:10240C007413226A606A024313434B60224B01220D
:10241C001A60FDF7DFFE04461E4B1B6813F0007FAD
:10242C0019D1FDF7D7FE001B0228F5D903202BE0AC
:10243C00A36813B1B3F5003F07D1164A536823F4D0
:10244C000033A1680B435360D7E740F2D9211348FE
:10245C0001F0CEF8F1E7002016E00F4B00221A60D5
:10246C00FDF7B8FE04460B4B1B6813F0007F06D03B
:10247C00FDF7B0FE001B0228F5D9032004E0002074
:10248C0002E0012000E0002002B070BD0120FBE75B
:10249C00007000400010024060004242103B0008F7
:1024AC0010B487B0164C94E80F000DF1180C0CE921
:1024BC000F00238AADF80430124B5B6803F00C025A
:1024CC00082A1AD1C3F38342624412F8102C13F475
:1024DC00803F05D10C4800FB02F007B010BC7047E0
:1024EC00084B5B68C3F34043634413F8143C074840
:1024FC0000FB02F0B0FBF3F0EFE70448EDE700BFA0
:10250C00C43900080010024000093D0000127A0096
:10251C0070B50D460446C0B1236813F00F0F1AD0E6
:10252C00022D1ED8854B1B6803F00703AB421ED24D
:10253C00824A136823F007032B431360136803F0DC
:10254C000703AB4213D0012070BD40F22E317C4802
:10255C0001F04EF8E0E740F22F31794801F048F8ED
:10256C00DEE74FF44C71764801F042F8DAE7236865
:10257C0013F0020F18D0A3687BB1802B0DD0902BD9
:10258C000BD0A02B09D0B02B07D0C02B05D0D02B53
:10259C0003D0E02B01D0F02B34D16A4A536823F0DE
:1025AC00F003A1680B435360236813F0010F61D053
:1025BC006368022B2CD86368012B2FD0022B34D0EC
:1025CC00604A126812F0020F00F0B6805D494A684A
:1025DC0022F0030213434B60FDF7FCFD06466368D3
:1025EC00012B29D0022B36D0564B5B6813F00C0F05
:1025FC0040D0FDF7EFFD801B41F288339842F3D9B0
:10260C000320A1E740F249314D4800F0F1FFC4E747
:10261C004FF454714A4800F0EBFFCCE7494A12687A
:10262C0012F4003FD2D101208EE7464A126812F014
:10263C00007FCBD1012087E7424B5B6803F00C0392
:10264C00042B17D0FDF7C6FD801B41F2883398424E
:10265C00F2D9032078E73B4B5B6803F00C03082BA3
:10266C0008D0FDF7B7FD801B41F288339842F2D9B0
:10267C00032069E7314B1B6803F00703AB420CD90D
:10268C002E4A136823F007032B431360136803F0DF
:10269C000703AB4201D0012056E7236813F0040F67
:1026AC0014D0E3685BB1B3F5806F08D0B3F5A06FBD
:1026BC0005D0B3F5C06F02D0B3F5E06F30D1214A2D
:1026CC00536823F4E063E1680B435360236813F011
:1026DC00080F15D023695BB1B3F5806F08D0B3F543
:1026EC00A06F05D0B3F5C06F02D0B3F5E06F1DD16C
:1026FC00144A536823F46053216943EAC1035360BD
:10270C00FFF7CEFE0F4B5B68C3F303130E4AD35C8B
:10271C00D8400E4B18600020FDF71AFD002013E77F
:10272C004FF46971064800F063FFC8E740F2AB3123
:10273C00034800F05DFFDBE7012005E700200240C5
:10274C00103B000800100240D83900080C00002093
:10275C00014B1868704700BF0C00002008B5FFF74C
:10276C00F7FF044B5B68C3F30223034AD35CD840E6
:10277C0008BD00BF00100240E839000808B5FFF79B
:10278C00E7FF044B5B68C3F3C223034AD35CD84016
:10279C0008BD00BF00100240E839000870B582B0D7
:1027AC000446036813F0130F6DD0236813F0010F68
:1027BC003FD0636843B1B3F5807F05D0B3F5007F9C
:1027CC0002D0B3F5407F63D1504BDB6913F0805FCF
:1027DC0063D14E4BDA6942F08052DA61DB6903F067
:1027EC0080530193019B0125494B1B6813F4807F97
:1027FC0055D0464B1B6A13F4407311D0626802F437
:10280C0040729A420CD0414A136A23F440704149F9
:10281C0001260E6000260E60106213F0010F52D1DB
:10282C003A4A136A23F4407361680B431362002D18
:10283C005AD1236813F0020F11D0A36843B1B3F53A
:10284C00804F05D0B3F5004F02D0B3F5404F50D1B7
:10285C002E4A536823F44043A1680B43536023680A
:10286C0013F0100F50D0E368B3F5800F01D0002B9C
:10287C0044D1264A536823F48003E1680B43536028
:10288C00002002B070BD7C21234800F0B1FE8CE723
:10289C008221214800F0ACFE96E70025A4E71C4AF3
:1028AC00136843F480731360FDF794FC0646184BD1
:1028BC001B6813F4807F9CD1FDF78CFC801B642873
:1028CC00F5D90320DDE7FDF785FC06460F4B1B6AA7
:1028DC0013F0020FA4D1FDF77DFC801B41F288336D
:1028EC009842F3D90320CCE7D36923F08053D3610A
:1028FC009FE7C921084800F07BFEA9E740F22511AB
:10290C00054800F075FEB4E70020BAE7001002405D
:10291C000070004040044242483B00080268D36803
:10292C0023F49073D3600268536923F0010353615D
:10293C00202380F83A30704790F83930DBB2212BE5
:10294C002AD18368B3F5805F16D0036A5A1C0262E1
:10295C001A7803685A60C38C013B9BB2C384EBB9F1
:10296C000268D36823F08003D3600268D36843F015
:10297C004003D36000207047036A1B880268C3F3CE
:10298C000803536003691BB9036A02330362E2E76D
:10299C00036A01330362DEE70220704700207047B0
:1029AC002DE9F843044642687E4B9A4200F291802E
:1029BC00E3681BB1B3F5005F40F09180236933B13C
:1029CC00B3F5806F03D0B3F5C06F40F08E806369B0
:1029DC004FF6F372134200D123B940F6AA11724894
:1029EC0000F006FE2268136923F44053E1680B43A0
:1029FC001361A36822691343626913432168CA688F
:102A0C0022F4B05222F00C021343CB6022685369BB
:102A1C0023F44073A1690B4353612268634B9A42C0
:102A2C0069D0FFF79BFE00EB800000EB800065682F
:102A3C00AD00B0FBF5F55E4FA7FB05356D092E011A
:102A4C00FFF78CFE00EB800000EB80006568AD00AA
:102A5C00B0FBF5F9FFF782FE00EB800000EB800085
:102A6C006568AD00B0FBF5F5A7FB05356D094FF0BA
:102A7C00640808FB15952D013235A7FB05356D094A
:102A8C0005F0F0053544FFF769FE00EB800000EB24
:102A9C0080006668B600B0FBF6F6FFF75FFE00EB51
:102AAC00800000EB800063689B00B0FBF3F0A7FB99
:102ABC000030400908FB10684FEA081808F132088A
:102ACC00A7FB0837C7F3431723682F449F60BDE863
:102ADC00F88340F6A711344800F08AFD68E740F609
:102AEC00A811314800F084FD68E740F6A9112E4882
:102AFC0000F07EFD6BE7FFF741FE00EB800000EB82
:102B0C0080006568AD00B0FBF5F5294FA7FB0535D6
:102B1C006D092E01FFF732FE00EB800000EB800008
:102B2C006568AD00B0FBF5F9FFF728FE00EB8000FF
:102B3C0000EB80006568AD00B0FBF5F5A7FB053533
:102B4C006D094FF0640808FB15952D013235A7FB74
:102B5C0005356D0905F0F0053544FFF70FFE00EB68
:102B6C00800000EB80006668B600B0FBF6F6FFF75D
:102B7C0005FE00EB800000EB800063689B00B0FB5F
:102B8C00F3F0A7FB0030400908FB10684FEA081867
:102B9C0008F13208A7FB0837C7F3431723682F4403
:102BAC009F6094E720AA4400843B00080038014051
:102BBC001F85EB512DE9F04105460F461646984608
:102BCC00069C2B681B6837EA03030CBF0123002308
:102BDC00B3421DD1B4F1FF3FF3D02CB1FDF7FAFA9B
:102BEC00A0EB0800A042ECD92A68D36823F4D07378
:102BFC00D3602A68536923F001035361202385F8BD
:102C0C00393085F83A30002385F83830032000E05D
:102C1C000020BDE8F081000000286CD010B50446FF
:102C2C0083690BB30368354A93420CD0A2F5744206
:102C3C00934208D002F58062934204D040F20F1107
:102C4C002F4800F0D5FCA369FBB1B3F5807F1CD0F5
:102C5C00B3F5007F19D0B3F5407F16D04FF48871CF
:102C6C00274800F0C5FC10E00368244A93420CD0BE
:102C7C00A2F57442934208D002F58062934204D0CC
:102C8C004FF48A711E4800F0B3FCA36813B1B3F57E
:102C9C00805F24D194F839303BB3242384F8393045
:102CAC002268D36823F40053D3602046FFF778FEE4
:102CBC002268136923F4904313612268536923F04B
:102CCC002A0353612268D36843F40053D360002075
:102CDC00E063202384F8393084F83A3010BD4FF487
:102CEC008B71074800F084FCD4E784F83830204618
:102CFC0000F070FDD1E70120704700BF00380140A3
:102D0C00843B00082DE9F04182B01E4690F8393022
:102D1C00DBB2202B55D104460D469046002955D0E8
:102D2C00002A55D090F83830012B53D0012380F86D
:102D3C0038300023C363212380F83930FDF74AFA79
:102D4C000746A4F82480A4F8268010E000963B46A1
:102D5C00002280212046FFF72DFF00283CD12B8834
:102D6C002268C3F3080353602369C3B90235E38CAB
:102D7C009BB2B3B1E38C013B9BB2E384A368B3F584
:102D8C00805FE3D000963B46002280212046FFF76F
:102D9C0011FF18BB2A7823685A600135E7E7013523
:102DAC00E5E700963B46002240212046FFF702FF54
:102DBC000346A8B9202284F83920002284F8382050
:102DCC0000E00223184602B0BDE8F0810123F9E7C8
:102DDC000123F7E70223F5E70323F3E70323F1E7E6
:102DEC000323EFE72DE9F04182B01E4690F83A300C
:102DFC00DBB2202B5AD104460D469046002959D0FF
:102E0C00002A59D090F83830012B57D0012380F884
:102E1C0038300023C363222380F83A30FDF7DAF907
:102E2C000746A4F82C80A4F82E801DE000963B46A3
:102E3C00002220212046FFF7BDFE002840D1236947
:102E4C0033B923685B68C3F3080325F8023B0BE036
:102E5C0023685B68DBB225F8013B05E023685B68FF
:102E6C0003F07F032B700135E38D9BB2BBB1E38D77
:102E7C00013B9BB2E385A368B3F5805FD6D0009687
:102E8C003B46002220212046FFF794FED0B923694F
:102E9C00002BE3D123685B682B700135E4E720231A
:102EAC0084F83A30002084F8380000E0022002B0A8
:102EBC00BDE8F0810120FAE70120F8E70220F6E7EF
:102ECC000320F4E70320F2E708B50168CB6823F090
:102EDC004003CB60202380F8393000F0DFFA00206B
:102EEC0008BD08B590F83A30DBB2222B45D1836887
:102EFC00B3F5805F0ED0036903BB03685A68836A1D
:102F0C00591C81621A70C38D013B9BB2C385F3B10E
:102F1C00002033E0826A036943B903685B68C3F33A
:102F2C0008031380836A02338362ECE703685B68EF
:102F3C00DBB21380836A01338362E4E703685B6866
:102F4C00826A511C816203F07F031370DBE7026815
:102F5C00D36823F02003D3600268D36823F4807312
:102F6C00D3600268536923F001035361202380F876
:102F7C003A3000F091FA002000E0022008BD7047C2
:102F8C0010B5044602681368D168526913F00F003B
:102F9C0005D113F0200F02D011F0200F53D10028CF
:102FAC0067D012F0010202D111F4907F61D013F0BE
:102FBC00010F06D011F4807F03D0E06B40F00100CC
:102FCC00E06313F0040F04D01AB1E06B40F0020080
:102FDC00E06313F0020F04D01AB1E06B40F0040070
:102FEC00E06313F0080F04D01AB1E26B42F0080250
:102FFC00E263E26B002A48D013F0200F02D011F0EC
:10300C00200F24D123685B6903F04003E26B12F0BC
:10301C00080F00D13BB32046FFF780FC23685A69A8
:10302C0012F0400F1BD05A6922F040025A61636BB8
:10303C008BB11A4A5A63606BFDF746FA28B3606B82
:10304C00436B984721E02046FFF74BFF1DE02046DD
:10305C00FFF747FFD6E72046FFF791FF15E0204624
:10306C00FFF78DFF11E02046FFF789FF0023E36394
:10307C000BE013F0800F02D011F0800F06D113F08B
:10308C00400F02D011F0400F04D110BD2046FFF7C5
:10309C0053FCFAE72046FFF717FFF6E7AD300008C0
:1030AC0008B5406A0023C385C384FFF768FF08BDD9
:1030BC0084B001A880E80E00002004B07047B0F87E
:1030CC00403043F43F43A0F8403000207047B0F844
:1030DC00403023F474535B045B0CA0F840300020A8
:1030EC0070470020704784B038B505AC84E80E00FA
:1030FC000123A0F840300024A0F84040A0F8444040
:10310C00A0F85040FFF7DBFF2046BDE8384004B084
:10311C0070470020704708B5FDF712F8400808BD4D
:10312C0000B583B00E4B5A6942F001025A615B69DB
:10313C0003F001030193019B002211461020FDF7BF
:10314C0081F81020FDF7C4F8002211461120FDF77C
:10315C0079F81120FDF7BCF803B05DF804FB00BF53
:10316C000010024008B564230122A0210348FEF799
:10317C00B7F808B1002008BD0120FCE7840000204E
:10318C002DE9F04188B02E4B9A6942F010029A61F9
:10319C009A6902F010020092009A9A6942F0200299
:1031AC009A619A6902F020020192019A9A6942F09E
:1031BC0004029A619A6902F004020292029A9A69D4
:1031CC0042F008029A619B6903F008030393039B86
:1031DC00DFF8788000224FF400514046FDF7F0FBF9
:1031EC00184D002280212846FDF7EAFB4FF40053CE
:1031FC00049301270597002406940226079604A938
:10320C004046FDF74FFA072304930594069404A94E
:10321C002846FDF747FA80230493059706940796F2
:10322C0004A92846FDF73EFA20230493059406943E
:10323C0004A90548FDF736FA08B0BDE8F08100BFD7
:10324C000010024000080140000C01400010014039
:10325C0000B585B000F0F0030001C0B243F00C02E1
:10326C008DF80C2043F008038DF80D3040F00C0362
:10327C008DF80E3040F008008DF80F006423009399
:10328C00042303AA4E210348FDF768FF05B05DF83F
:10329C0004FB00BF8400002000B585B000F0F003F3
:1032AC000001C0B243F00D028DF80C2043F009036D
:1032BC008DF80D3040F00D038DF80E3040F0090004
:1032CC008DF80F0064230093042303AA4E210348B6
:1032DC00FDF744FF05B05DF804FB00BF840000203F
:1032EC0008B50220FFF7B4FF2820FFF7B1FF0C2030
:1032FC00FFF7AEFF8020FFF7ABFF08BD10B504460B
:10330C0002E00134FFF7C8FF20780028F9D110BD86
:10331C0008B50C480C4B03600C4B436000238360D6
:10332C00C3604FF48042026143618361C3610362F5
:10333C00FDF7F6FD00B908BD4521054800F0B0F8D1
:10334C00F9E700BF8400002000540040A086010073
:10335C00C03B00080268324B9A4200D0704710B54F
:10336C0086B004464FF44073029312230393032355
:10337C00059302A92B48FDF795F92B4A536843F0A6
:10338C00E06343F002035360284BDA6942F4001205
:10339C00DA61DB6903F400130193019B2448254B8C
:1033AC00036010234360002383608022C2600361AA
:1033BC0043618361C361FCF7DBFF30BB1C4B636370
:1033CC005C621D481D4B03600023436083608022B8
:1033DC00C260036143618361C361FCF7C9FFC8B973
:1033EC00154BA3635C62002211461F20FCF72AFFD9
:1033FC001F20FCF76DFF002211462020FCF722FF56
:10340C002020FCF765FF06B010BD6E210C4800F0C3
:10341C0047F8D3E77E210A4800F042F8E0E700BF06
:10342C0000540040000C014000000140001002401C
:10343C00400000206C000240D800002080000240B8
:10344C00C03B0008F8B507460E46FFF764FE05467C
:10345C003046FFF760FE04460120FFF7F9FE0A2014
:10346C00FCF7BEFEC5F18800C0B2FFF7F1FE38468E
:10347C00FFF744FFC4F1C800C0B2FFF7E9FE3046C5
:10348C00FFF73CFF4FF47A70FCF7AAFEF8BD08B5C5
:10349C000120FFF7DDFE08BD00BF704700BF70477D
:1034AC00FEE7000000B595B001220A924FF480337C
:1034BC000B9300210C910E920222119212934FF455
:1034CC00801313930AA8FEF75BFD58BB0F230593DB
:1034DC0002230693002307934FF48062089209930A
:1034EC00012105A8FFF714F800BB102301934FF43A
:1034FC008003049301A8FFF751F9D8B9FFF728F915
:10350C000E4BA3FB00308009FCF7F8FE0420FCF7FF
:10351C000BFF002211464FF0FF30FCF793FE15B065
:10352C005DF804FBBB210648FFF7BAFFC92104482C
:10353C00FFF7B6FFD0210248FFF7B2FFD34D621060
:10354C00D03B000808B5FCF727FEFFF7ABFFFFF7F1
:10355C0017FEFFF7E5FDFFF7DBFE00F0FFF800F0CC
:10356C00A1F900F019F94FF47A70FCF739FEFFF766
:10357C00B7FE1A48FFF7C2FE4FF4FA60FCF730FEB4
:10358C000120FFF765FE6420FCF72AFE02E06420B0
:10359C00FCF726FEFFF7E6FD0028F8D0104C20467D
:1035AC00FCF7CEFD0F4D4FF47A7382B221462846BC
:1035BC00FFF7A8FB0C4C41F2883310222146284619
:1035CC00FFF710FC21460948FFF73CFF4FF4FA6067
:1035DC00FCF706FEFFF75BFFE0E700BFE03B0008EF
:1035EC00080000201C0100202C000020F03B0008EB
:1035FC007047000000B583B0244B9A6942F0010279
:10360C009A619A6902F001020092009ADA6942F01A
:10361C008052DA61DB6903F080530193019B032034
:10362C00FCF7F2FD002211466FF00B00FCF70AFECE
:10363C00002211466FF00A00FCF704FE002211462E
:10364C006FF00900FCF7FEFD002211466FF004003C
:10365C00FCF7F8FD002211466FF00300FCF7F2FDB9
:10366C00002211466FF00100FCF7ECFD0022114620
:10367C004FF0FF30FCF7E6FD054A536823F0E0639A
:10368C0043F00073536003B05DF804FB001002407C
:10369C00000001407047FEE7FEE7FEE7FEE77047DB
:1036AC007047704708B5FCF789FDFCF75CFE08BD58
:1036BC0008B50248FCF754FF08BD00BF40000020CD
:1036CC0008B50248FCF74CFF08BD00BFD80000202D
:1036DC0008B50248FEF774FA08BD00BF840000204C
:1036EC0008B50248FEF720FB08BD00BF840000208F
:1036FC0008B50248FFF744FC08BD00BF5C01002080
:10370C0008B50248FFF73CFC08BD00BF1C010020B7
:10371C000F4B1A6842F001021A6059680D4A0A40B0
:10372C005A601A6822F0847222F480321A601A6885
:10373C0022F480221A605A6822F4FE025A604FF476
:10374C001F029A60044B4FF000629A60704700BFF2
:10375C00001002400000FFF800ED00E008B50B4837
:10376C000B4B03604FF4E133436000238360C36071
:10377C0003610C2242618361C361FFF74DFA00B90A
:10378C0008BD43210348FFF78BFEF9E75C010020DD
:10379C0000380140F83B000808B50B480B4B0360A0
:1037AC004FF49643436000238360C36003610C2293
:1037BC0042618361C361FFF72FFA00B908BD56213E
:1037CC000348FFF76DFEF9E71C010020004800409C
:1037DC00F83B000830B587B003682D4A934204D0FB
:1037EC002C4A93422AD007B030BD2B4B9A6942F435
:1037FC0080429A619B6903F480430093009B4FF4D1
:10380C00007302930223039303230593234D02A910
:10381C002846FCF747FF4FF480630293002403947F
:10382C00049402A92846FCF73DFF22462146252098
:10383C00FCF708FD2520FCF74BFDD4E7164BDA69A5
:10384C0042F48022DA61DB6903F480230193019B4B
:10385C004FF4806302930223039303230593104DCB
:10386C0002A92846FCF71EFF4FF4006302930024C4
:10387C000394049402A92846FCF714FF224621461F
:10388C002720FCF7DFFC2720FCF722FDABE700BF6D
:10389C000038014000480040001002400008014080
:1038AC00000C014008B50B480B4B03600823436028
:1038BC00022383600323C36000238361C36103621B
:1038CC00FEF7D0FA00B908BD3F210448FFF7E8FD28
:1038DC00F9E700BF9C010020005C0040083C000898
:1038EC000268094B9A4200D0704782B003F5DA3374
:1038FC00DA6942F40002DA61DB6903F40003019334
:10390C00019B02B0704700BF005C0040002103E047
:10391C000B4B5B58435004310A480B4B42189A42EC
:10392C00F6D30A4A02E0002342F8043B084B9A42C1
:10393C00F9D3FFF7EDFE00F00FF8FFF703FE704729
:10394C00203C000800000020100000201000002087
:10395C00FC050020FEE7000070B500250C4E0D4C58
:10396C00A41BA410A54209D100F01AF800250A4E98
:10397C000A4CA41BA410A54205D170BD56F82530E5
:10398C0098470135EEE756F8253098470135F2E7B0
:10399C00183C0008183C0008183C00081C3C0008A7
:1039AC00F8B500BFF8BC08BC9E467047F8B500BF20
:0839BC00F8BC08BC9E467047F0
:1039C40002030405060708090A0B0C0D0E0F10105C
:1039D40001020000000000000000000001020304D6
:1039E4000607080900000000010203042E2E2F44DC
:1039F4007269766572732F53544D33324631787839
:103A04005F48414C5F4472697665722F5372632F2D
:103A140073746D3332663178785F68616C5F636F9D
:103A2400727465782E6300002E2E2F4472697665B9
:103A340072732F53544D3332463178785F48414C7A
:103A44005F4472697665722F5372632F73746D339A
:103A540032663178785F68616C5F646D612E6300F3
:103A64002E2E2F447269766572732F53544D333260
:103A7400463178785F48414C5F4472697665722FAD
:103A84005372632F73746D3332663178785F686173
:103A94006C5F6770696F2E63000000002E2E2F4448
:103AA4007269766572732F53544D33324631787888
:103AB4005F48414C5F4472697665722F5372632F7D
:103AC40073746D3332663178785F68616C5F693224
:103AD400632E63002E2E2F447269766572732F5302
:103AE400544D3332463178785F48414C5F447269B3
:103AF4007665722F5372632F73746D333266317827
:103B0400785F68616C5F7063642E63002E2E2F44AF
:103B14007269766572732F53544D33324631787817
:103B24005F48414C5F4472697665722F5372632F0C
:103B340073746D3332663178785F68616C5F726379
:103B4400632E63002E2E2F447269766572732F5391
:103B5400544D3332463178785F48414C5F44726942
:103B64007665722F5372632F73746D3332663178B6
:103B7400785F68616C5F7263635F65782E630000D1
:103B84002E2E2F447269766572732F53544D33323F
:103B9400463178785F48414C5F4472697665722F8C
:103BA4005372632F73746D3332663178785F686152
:103BB4006C5F756172742E63000000002E2E2F530B
:103BC40072632F6932632E63000000002E2E2F5380
:103BD40072632F6D61696E2E630000005379537414
:103BE400456D207354615274496E47007465737453
:103BF400000000002E2E2F5372632F7573617274B0
:103C04002E6300002E2E2F5372632F7573622E6362
:043C140000000000AC
:043C1800310100086E
:043C1C000D0100088E
:103C2000010000001000000041540D0000A24A04F1
:04000005080039199D
:00000001FF
